:020000040800F2
:10000000C03F0020A901000833170008611500084F
:1000100031170008B5020008211E0008000000008A
:100020000000000000000000000000005919000856
:10003000B702000800000000191800085B1900084A
:10004000C3010008C3010008C3010008C301000880
:10005000C3010008C3010008C3010008C301000870
:10006000C3010008C3010008C3010008C301000860
:10007000C3010008C3010008C3010008C301000850
:10008000C3010008C3010008C3010008000000000C
:10009000000000000000000000000000C301000894
:1000A000C3010008C3010008C3010008C301000820
:1000B000C3010008C3010008C3010008C301000810
:1000C000C3010008C3010008C3010008C301000800
:1000D000C3010008C3010008151E0008000000004D
:1000E000C3010008C3010008C301000800000000AC
:1000F000000000000000000000000000C301000834
:1001000000000000C3010008C3010008C30100088B
:1001100000000000000000000000000000000000DF
:10012000C3010008C3010008C3010008C30100089F
:10013000C3010008000000000000000000000000F3
:10014000000000000000000000000000C3010008E3
:10015000C3010008C3010008C3010008C30100086F
:10016000C3010008C30100080000000000000000F7
:10017000000000000000000000000000000000007F
:1001800000000000C30100080000000000000000A3
:10019000C3010008DFF80CD000F07AF800480047EF
:1001A000851E0008C03F00200648804706480047DB
:1001B000FEE7FEE7FEE7FEE7FEE7FEE7FEE7FEE717
:1001C000FEE7FEE7ED190008950100082DE9F05F54
:1001D0000546002092469B468846064681464024B6
:1001E0001BE0284641464746224600F041F8534668
:1001F0005A46C01A914110D311461846224600F0C3
:1002000028F82D1A67EB01084F46224601200021ED
:1002100000F01FF817EB00094E41201EA4F1010465
:10022000DFDC484631462A464346BDE8F09FD2B25D
:1002300001E000F8012B491EFBD270470022F6E7CF
:1002400010B513460A4604461946FFF7F0FF20464C
:1002500010BD202A04DB203A00FA02F1002070478A
:100260009140C2F1200320FA03F3194390407047F4
:10027000202A04DB203A21FA02F00021704721FAFB
:1002800002F3D040C2F12002914008431946704762
:10029000064C074D06E0E06840F0010394E80700D3
:1002A00098471034AC42F6D3FFF778FF2CF40108DE
:1002B0004CF40108FEE7704731B50C4D4FF4804413
:1002C00000222146284600F0FCF90022A11108482E
:1002D00000F0F7F9FF2301226946064800F084FF89
:1002E00001222146284600F0ECF938BD0004024006
:1002F000000002409000002031B50C4D4FF48044C6
:1003000000222146284600F0DCF9012211020848AB
:1003100000F0D7F9FF2301226946064800F064FF88
:1003200001222146284600F0CCF938BD00040240E5
:10033000000002409000002070B5544D4FF400744E
:1003400000222146284600F0BCF9642000F0DEF8C7
:1003500001222146284600F0B4F91220FFF7ACFF35
:1003600001F07EFD7420FFF7A7FF5420FFF7C4FFC4
:100370007E20FFF7A1FF3B20FFF7BEFF2B20FFF7FA
:100380009BFF0420FFF7B8FF6320FFF7B5FF0C20A9
:10039000FFF792FF8B20FFF7AFFF9C20FFF7ACFF2A
:1003A0009620FFF7A9FF0F20FFF7A6FF0120FFF718
:1003B00083FF2B20FFF7A0FF0120FFF79DFF012007
:1003C000FFF79AFF1120FFF777FF0120FFF794FF57
:1003D0004420FFF771FF0020FFF78EFF3120FFF769
:1003E0008BFF4520FFF768FF2B20FFF785FF0120DB
:1003F000FFF782FF0020FFF77FFF0020FFF77CFF61
:100400003C20FFF759FF0120FFF776FF0320FFF79D
:1004100053FF1520FFF770FF0420FFF74DFF412029
:10042000FFF76AFFA820FFF767FF3220FFF764FF9E
:100430003A20FFF741FF3020FFF75EFF3B20FFF738
:100440003BFF0A20FFF758FF1820FFF735FF8020F9
:10045000FFF752FF2220FFF72FFFB120FFF74CFFDD
:100460002020FFF729FF01F0FBFC4E20FFF724FFBF
:100470000020FFF741FF4F20FFF71EFF2B20FFF763
:100480003BFFBDE870400120FFF736BF000002408F
:1004900010B501F019FD2220FFF70EFFC720FFF76E
:1004A0002BFF2020FFF708FFBDE8104001F0D8BC6B
:1004B00010B5002001F018FD2220FFF7FDFEC72037
:1004C000FFF71AFF2020FFF7F7FEBDE8104001F00C
:1004D000C7BC10B51020FFF7EFFEBDE810400120AB
:1004E000FFF70ABF704790F83510022903D080212A
:1004F000416501207047052180F8351000680168CA
:1005000021F00101016000207047000070B5044631
:1005100000F0DCF80546601C02D004480078044472
:1005200000F0D4F8401BA042FAD370BD6000002058
:100530002DE9F84FDFF860B100224FF001084FF0CD
:10054000030A4FF00F090BF1040E00BF0B6808FA05
:1005500002F42340A3426ED14D68022D01D0122D2A
:100560000ED1D50800EB850CDCF820505607F70EAD
:1005700009FA07F6B5430E69BE402E43CCF8206059
:10058000066855000F790AFA05FC07F0030726EA0A
:100590000C06AF40374307604E68012E05D0022E8F
:1005A00003D0112E01D0122E0ED18668CF6826EA14
:1005B0000C06AF40374387604668A6430C79C4F306
:1005C0000014944034434460C6688C6826EA0C06E4
:1005D000AC403443C4604C68E40056D52F4C2568C9
:1005E00045F480452560246822F0030504F4804426
:1005F00000942B4C2E19D6F8084895072F0F09FAAE
:1006000007F5AC43274DA84201D1002515E0264D42
:10061000A84201D1012510E0244DA84201D10225B4
:100620000BE0234DA84201D1032506E0214DA8424D
:1006300002D1042501E028E00725BD402543C6F886
:100640000858DBF800405D464E689C43F60300D531
:100650001C432C60DEF8004075464E689C43B60390
:1006600000D51C432C600C4D08352C684E689C430B
:10067000F60200D51C432C60074D0C352C684E68E3
:100680009C43B60200D51C432C60521C102AFFF478
:100690005DAFBDE8F88F0000003C014044380240E7
:1006A0000030014000000240000402400008024007
:1006B000000C0240001002400069084000D00120F8
:1006C00070470AB1816170470904FBE701488068FF
:1006D00070470000600000200248816802781144E1
:1006E00081607047600000200B4810B5016841F43C
:1006F00000710160016841F480610160016841F4AA
:1007000080710160032000F06FF8002000F006F80F
:1007100000F024F8002010BD003C024070B50D4DE3
:1007200004464FF47A712878B1FBF0F00A49096861
:10073000B1FBF0F000F006FE48B9102C07D2002201
:100740002146501E00F030F800206C6070BD012082
:1007500070BD0000600000206C0000200A4808B551
:10076000016841F480410160006800F4804000901D
:100770000548001F016841F080510160006800F0E9
:100780008050009008BD000044380240002809DB7A
:1007900000F01F02012191404009800000F1E0209B
:1007A000C0F8001170470000F0B40E4B1B680C46F7
:1007B000C3F30223C3F10705042D00D90425191D35
:1007C000072901D2002300E0DB1E012606FA05F10D
:1007D000491E214099409E40761E16403143F0BC90
:1007E00001F01FBB0CED00E0064900F007020868AD
:1007F0004FF6FF03184040EA0220034A1043086006
:10080000704700000CED00E00000FA052DE9F84308
:10081000044600684FF00109C1074FF0000601D1FE
:10082000400727D5DFF81C81C8F86860FFF74EFF46
:100830000746454D05E000BFFFF748FFC01B0228F3
:1008400057D828680001F7D460688101207A41EA0E
:1008500000703D4984310860C8F86890FFF736FFA2
:10086000074604E0FFF732FFC01B022841D8286882
:100870000001F7D52078800752D533484030016811
:1008800041F0805101600068304D00F080500090D0
:10089000286840F480702860FFF718FF074604E0DE
:1008A000FFF714FFC01B022823D82868C005F7D51E
:1008B000254D7035286810F4407020D0A18901F4CE
:1008C000407181421BD0286820F440712048C0F854
:1008D0000090066029602868C00710D0FFF7F6FE78
:1008E000064641F2883707E0FFF7F0FE801BB8426A
:1008F00002D90320BDE8F88328688007F4D5E168B1
:100900001148C1F301220830032A12D0016821F4F2
:10091000F81101602868A189C1F30B010843286020
:100920002078000703D50B49207CC1F8E0010020A6
:10093000E0E70268084B22F4F81219400A4302600B
:10094000E8E7000000004742003802400070004025
:10095000400E474200104742FFFCFF0F2DE9F047D1
:100960000E46050065D0DFF81481D8F80000F7B214
:1009700000F00F00B04207D288F80070D8F80000ED
:1009800000F00F00B04254D128683D4C810712D5C9
:10099000400703D5206840F4E05020602878000725
:1009A00003D5206840F4604020602068A96820F0EA
:1009B000F000084320602878C0072DD030496868CF
:1009C0000839012812D0022813D0032811D0096851
:1009D000890700292DDA216821F0030101432160F4
:1009E000FFF774FE814641F2883A0EE009688903F8
:1009F000EFE709688901ECE7FFF768FEA0EB090162
:100A0000514502D90320BDE8F0872068696800F0ED
:100A10000C00B0EB810FEFD1D8F80010404601F088
:100A20000F01B14207D90770006800F00F00B04213
:100A300001D00120E7E72878400705D52068E9685C
:100A400020F4E050084320602878000706D520688D
:100A5000296920F4604040EAC100206000F036F8C7
:100A60002168084AC1F30311515CC8400649086077
:100A70000020FFF753FE0020C5E70000003C0240C5
:100A80000838024014F401086C00002004480549AD
:100A900000680968044AC1F38221515CC84070476C
:100AA0006C0000200838024024F40108044805497D
:100AB00000680968044AC1F34231515CC84070477C
:100AC0006C0000200838024024F40108154810B5D5
:100AD000006810F00C02144813D01449042A0FD0F7
:100AE000082A0ED10F4C241F2268236802F03F020F
:100AF0005B0207D52068C0F38810A0FB010106E067
:100B0000084610BD2168C1F38811A1FB0001002334
:100B1000FFF75CFB2168C1F30141491C4900B0FBB0
:100B2000F1F010BD083802400024F40040787D0147
:100B30002DE9F84F050076D02878DFF8F8B2BE4CE2
:100B4000C00749D0DBF800105846C1F381010129E4
:100B500008D00068C0F3810002280AD1201D006877
:100B6000400206D52068800336D568680028E2D0A8
:100B700032E06868B0F5803F10D0B0F5A02F206853
:100B800010D020F480302060206820F48020206085
:100B90006868A0B1FFF79AFD06460CE0206840F4B3
:100BA0008030F4E740F480202060F7E7FFF78EFD07
:100BB000801B642873D820688003F7D50CE0FFF70A
:100BC00085FD064605E000BFFFF780FD801B642819
:100BD000F0D820688003F7D42878DFF86082800797
:100BE0004FF000093ED5DBF80010584611F00C0F0D
:100BF00009D00068C0F3810002280BD18D48001F86
:100C00000068400206D42068800715D5E8680128EE
:100C100009D111E0E868B8B10120C8F80000FFF779
:100C200055FD064605E002E1FFF750FD801B022856
:100C3000C0D820688007F7D52068296920F0F8001F
:100C400040EAC10020600DE0C8F80090FFF73EFDCB
:100C5000064604E0FFF73AFD801B02281FD82068F3
:100C60008007F7D42878000722D5724E7448696946
:100C70006C3671B101210160FFF728FD074604E0E1
:100C8000FFF724FDC01B022809D830688007F7D57C
:100C90000EE0C0F80090FFF719FD074605E083E07D
:100CA000FFF714FDC01B02287ED830688007F7D4F8
:100CB0002878400768D5DFF87CA100270AF1380AB8
:100CC000DAF80000C0000BD4DAF8001041F08051CF
:100CD000CAF80010DAF80000012700F080500090F8
:100CE000584E3068C00510D4306840F480703060D1
:100CF000FFF7ECFC009005E0FFF7E8FC0099401AD4
:100D0000022851D83068C005F6D54A4EA868683622
:100D100001280FD00528306810D020F00100306085
:100D2000306820F004003060A868B8B1FFF7CEFC4E
:100D300000900FE0306840F00100F4E740F004005C
:100D40003060F7E7FFF7C2FC0099411A41F28830A2
:100D5000814264D830688007F4D50EE0FFF7B6FC16
:100D6000009007E0FFF7B2FC0099411A41F2883089
:100D7000814254D830688007F4D42FB1DAF80010DB
:100D800021F08051CAF80010A869C0B3DBF8001048
:100D9000C1F3810102294AD00228484607D0C8F889
:100DA0006000FFF793FC00E039E005463AE0474673
:100DB000C8F86000FFF78AFC064604E0FFF786FCEF
:100DC000801B02282BD820688001F7D4D5E90701C1
:100DD0000843A96A1C4A490802EB01416A6A41EAD0
:100DE0008211084395F82C1040EA01611148001F58
:100DF000016001203866FFF769FC054605E014E054
:100E0000FFF764FC401B022809D820688001F7D551
:100E10000BE000BFFFF75AFC401B022802D9032059
:100E2000BDE8F88F20688001F4D40020F8E70120A5
:100E3000F6E7000008380240003802400000474250
:100E4000800E4742007000400000FFFF70B50400B4
:100E500002D0607F10B106E0012070BD0020207735
:100E6000204600F049F8022060772168CA204862D5
:100E7000216853204862204600F0DAFCFF25042652
:100E800018BB206881681B4A11408160216888680E
:100E900062681043D4E904231A4310438860216830
:100EA000E068086120680169228941EA0241016124
:100EB0002068C16821F08001C160206880688006D8
:100EC00007D4204600F0FEF818B120684562667726
:100ED000C2E72068016C21F4802101642068016C64
:100EE000A2691143016420684562012060770020F7
:100EF00070BD0000BFFF8FFF00680349884202D128
:100F00000249012008607047002800403C0E47421B
:100F10002DE9F0470446007F0B4601281FD04FF013
:100F2000010984F81C9002206077DAB19878D978AA
:100F300040EA014558781978000240EA41300543FB
:100F40002168CA204862216853204862204600F088
:100F50006FFC0026FF274FF0040860BB1AE0022058
:100F6000BDE8F0875878C10603D500F0EF000A30DD
:100F70005870D87800F051FC0204587800F04DFC0D
:100F800042EA0022987800F048FC0243187842EACE
:100F90004035D5E70F480540206845602068C168A6
:100FA00021F08001C1602068806880060AD4204654
:100FB00000F088F830B12068476284F81D802677F9
:100FC0000120CDE72068476284F81D902677002035
:100FD000C6E700003FFFFF002DE9F0470446007F11
:100FE0000D46012827D04FF0010A84F81CA00220EA
:100FF00060772068002680684FEA4060F2B10028E0
:1010000000DBEE70A878297840EA01476878E97833
:10101000000240EA014007432168CA204862216873
:1010200053204862204600F003FC4FF0FF084FF0C9
:101030000409A0BB16E00220BDE8F087002800DB11
:10104000EE70287800F0E9FB0204687800F0E5FB18
:1010500042EA0022A87800F0E0FB0243E87842EA86
:101060000047D9E716480740206807602068816874
:1010700021F480218160D5E90301084321688A6851
:10108000104388602068C16821F08001C160206839
:10109000806880060BD4204600F014F838B121682F
:1010A000C1F8248084F81D9026770120C4E72168C8
:1010B000C1F8248084F81DA026770020BCE700003A
:1010C0007F7F7F0070B504460068C16821F0A001F1
:1010D000C160FFF7FBFA05464FF47A7607E000BFE0
:1010E000FFF7F4FA401BB04201D9032070BD20681D
:1010F000C0688006F4D5002070BD70B5040005D02E
:101100000025A56294F8510010B106E0012070BDE1
:1011100084F85050204600F031F8022084F8510045
:101120002068016821F040010160D4E90101084311
:10113000D4E903121143084361690843218B01F488
:1011400000710843E1690843216A0843A16A084322
:1011500021680860A069042101EA1040616A08431F
:10116000216848602068C16921F40061C16165653A
:10117000012084F85100002070BD000010B586B039
:10118000044614216846FFF759F81449206888423C
:1011900021D113480021026842F4804202600068B5
:1011A00000F4804005900E481038026842F00202B8
:1011B0000260006800F0020005904FF420400090AB
:1011C0000220CDE901010320039005200490694627
:1011D0000448FFF7ADF906B010BD0000003800402C
:1011E00040380240000402402DE9F84F044690F8D0
:1011F000500000271D461646894601280DD04FF0A5
:10120000010B84F850B0FFF761FA804694F8510062
:10121000BA46012804D002278EE00220BDE8F88FEC
:10122000B9F1000F7DD0002E7BD0032084F851004F
:10123000C4F854A0C4F83090A686E686C4F838A056
:10124000A4F83CA0A4F83EA0C4F844A0C4F840A070
:10125000A068B0F5004F04D12068016841F48041D6
:10126000016020680168490603D4016841F040012B
:101270000160E068B0F5006F606803D030B3012E04
:1012800024D040E008B1012E1CD1206B21680088D9
:10129000C86006E020688168890709D5216B098844
:1012A000C160206B801C2063E08E401EE08609E058
:1012B000FFF70CFAA0EB0800A84202D3681C01D08B
:1012C00031E07DB3E08E0028E4D11FE0206B21687F
:1012D0000078087306E020688168890709D5216BCA
:1012E00009780173206B401C2063E08E401EE0866D
:1012F00009E0FFF7EBF9A0EB0800A84202D3681C55
:1013000001D010E075B1E08E0028E4D142462946B4
:10131000204600F0ABFA08B120206065A06820B13B
:1013200007E008E0FFE7032706E02068C16880685F
:101330000090606D00B1012784F851B084F850A08E
:1013400038466BE710B5401EB0F1807F01D3012015
:1013500010BD4FF0E02460610F21601700F061FDC7
:101360000020A06107202061002010BD7047000010
:1013700070B5026804461068D168536910F00F0F09
:1013800051D003F0010501F4907635435DD0C207DA
:1013900005D0CA0503D5E26B42F00102E2634207C1
:1013A00005D5DA0703D0E26B42F00202E26382075E
:1013B00005D5DA0703D0E26B42F00402E2630207CC
:1013C00005D5DA0703D0E26B42F00802E263E26B74
:1013D000002A34D0800604D5880602D5204600F0C5
:1013E00045FB20684069E16BC0F3801001F0080103
:1013F0000143204624D000F02BFB206841694906B8
:101400001AD5416921F040014161606BA0B11B49CF
:101410000165606BFFF767F8002810D0606B016D05
:10142000BDE87040084783060FD58B060DD52046D2
:10143000BDE8704000F01ABB2046FFF797FF70BD73
:10144000FFF794FF0020E06370BD030606D50B068E
:1014500004D52046BDE8704000F0AABC4006F3D594
:101460004806F1D5D168204621F04001D160202105
:1014700084F8391000F073F870BD0000411A0008BC
:1014800070B5040004D094F83900002510B106E0CE
:10149000012070BD84F83850204600F023F8242045
:1014A00084F839002068C16821F40051C1602046E9
:1014B00000F028FB2068016921F490410161206857
:1014C000416921F02A0141612068C16841F400515D
:1014D000C160E563202084F8390084F83A000020D8
:1014E00070BD000010B586B0044614216846FEF7B2
:1014F000A5FE17492068884228D11648016841F4A2
:1015000000310160006800F4003005901148103887
:10151000016841F0010101600068694600F00100C6
:1015200005900C20009002200190012002900320E1
:101530000390072004900848FEF7FAFF00220721D5
:101540002620FFF731F92620FFF720F906B010BD5D
:10155000004400404038024000000240704770479D
:10156000FEE700002DE9F04186B014216846FEF741
:1015700065FE2D480024016841F004010160016806
:1015800001F004010591016841F001010160016869
:1015900001F001010591016841F00201016000685C
:1015A000DFF8888000F00200059000224FF48041AF
:1015B0004046FFF786F81E4F4FF440760022314632
:1015C0003846FFF77EF801224FF402714046FFF7DC
:1015D00078F844F2082000900125CDE901546946CD
:1015E00040460394FEF7A4FF0096CDE901546946F6
:1015F00038460394FEF79CFFA8028DE83100694647
:101600003846FEF795FFC02000901220CDE9010575
:10161000032003900420049069464046FEF788FFAB
:1016200006B0BDE8F08100003038024000040240FE
:101630000000024010B586B014216846FEF7FEFD9A
:101640001B48002419490594C0E900147F218160DA
:10165000FF21C0E9031444618461FFF7F7FB08B17F
:10166000FEF740FF8DF800408DF801408DF80240F4
:101670000394012269460E480494FFF7ADFC08B1BB
:10168000FEF730FF01208DF814008DF815008DF85D
:10169000160002468DF8174005A90548FFF738FCEB
:1016A000002801D0FEF71EFF06B010BD0028004044
:1016B000700000200F4810B50D4901604FF4827191
:1016C000416000218160C1604FF400720161C0E996
:1016D0000512C1610162416281620A21C162FFF7A4
:1016E0000CFD002803D0BDE81040FEF7FBBE10BD86
:1016F00000380040900000200C4810B50A490160F5
:101700004FF4E1314160002181600C22C160C0E9E9
:1017100004128161C161FFF7B3FE002803D0BDE868
:101720001040FEF7DFBE10BD00440040E80000207E
:10173000FEE7704770B52420FEF7BEFD002443F697
:101740009825FF20FEF7D8FD641CAC42F9D3262073
:10175000FEF7B2FD00240020FEF7CEFD641CAC4273
:10176000F9D370BD70B505462420FEF7A5FD002411
:1017700043F698262878FEF7BFFD641C6D1CB44222
:10178000F8D32620FEF798FD00240020FEF7B4FDD4
:10179000641CB442F9D370BD2DE9F05F1B4DDFF836
:1017A00070B000241A4800214C38DFF8689080F8A7
:1017B00027401BF804600BEB0407802343F6982AAC
:1017C0000022104600EBC10C15F80CC0B44507D937
:1017D00097F80180C44503D823FA00FC4CEA0202C2
:1017E000401CC0B20828EDD309F80120491C89B279
:1017F0005145E5D307490846FFF7B4FFFEF758FE09
:10180000641CE4B2102CCDD3BDE8F09F541F000837
:101810004C000020280100207047002102E00A3817
:10182000C0B2491C0A28FAD2090740EA1160704781
:1018300070B504460068C168490614D44FF0FF3102
:10184000C160FEF743FF05464FF47A7607E000BF1C
:10185000FEF73CFF401BB04201D9032070BD206859
:10186000C0684006F4D5002070BD000038B50446BD
:101870001248134B0068B0FBF3F04FF47A735843EF
:1018800000906068B0F5827F0DD10B460092002277
:101890008021204600F016F870B1606D40F0200005
:1018A0006065032038BD009830B1401E009020686C
:1018B0008068C0430006F6D5002038BD6C000020CB
:1018C00000366E012DE9F0411D4617460E460446CE
:1018D000DDF8188008E0681C06D0FEF7F7FEA0EBE4
:1018E0000800A8420BD255B12068806836EA000093
:1018F00030D00020B842EED10020BDE8F081206851
:10190000416821F0E00141606068B0F5827F0BD151
:10191000A068B0F5004F02D0B0F5806F04D1206808
:10192000016821F040010160A06AB0F5005F09D1B3
:101930002068016821F4005101602068016841F4C9
:1019400000510160012084F85100002084F850000B
:101950000320D2E70120CDE77047FEF7BDBE0000AF
:1019600010B598B030216846FEF768FC14210CA829
:10197000FEF764FC142111A8FEF760FC194800244E
:10198000016841F080510160006800F080501690BD
:101990001548016821F4404141F4004101600068AC
:1019A000102100F4404016900A2000900120CDE95B
:1019B0000301CDE905046846FFF7BAF80F20CDE929
:1019C0000C040E940F9400210CA81094FEF7C6FF8F
:1019D000022011900002149011A8FEF717FF18B012
:1019E00010BD0000403802400070004010480168FF
:1019F00041F4700101600F48016841F0010101608C
:101A00000C4A00210832116002680B4B1A40026038
:101A1000031D0A4A1A60026822F480220260054807
:101A20000C30016002495806803908607047000098
:101A300088ED00E000380240FFFFF6FE1030002481
:101A400010B5806B0021C185C184FFF78FFC10BDEC
:101A50000168CA6822F49072CA6001684A6922F07B
:101A600001024A61202180F83A10704710B590F8C1
:101A70003A10222901D0022010BD8168B1F5805FA3
:101A800011D00169002901681FD0496801F07F0366
:101A9000816A4A1C82620B70C18D491E0904090CBF
:101AA000C18518D02BE00269816A002A0268526859
:101AB00005D0D2B20A80816A491C8162ECE7C2F388
:101AC00008020A80816A891CF7E74A68816A4B1C10
:101AD00083620A70E0E70168CA6822F02002CA60E7
:101AE0000168CA6822F48072CA6001684A6922F0FB
:101AF00001024A61202180F83A10FFF72FFD0020F3
:101B000010BD00002DE9F041044600680169E2685B
:101B100021F44051114301612169A068E269084341
:101B20006169114322680843D16849F20C63994303
:101B30000143D16020684169A26921F440711143D9
:101B40004161E2696425B2F5004F974897492268E0
:101B50004FF032083FD08A4201D082427CD1FEF75A
:101B6000A5FF00EBC00101EB001061688900B0FB2C
:101B7000F1F6FEF79BFF00EBC00101EB001061687E
:101B80008900B0FBF1F0B0FBF5F06FF018014843AD
:101B900006EB800108EB0110B0FBF5F000F0F00659
:101BA000FEF784FF00EBC00101EB001061688900C3
:101BB000B0FBF1F0B0FBF5F006EB0016FEF776FF98
:101BC00000EBC00101EB001061688900B0FBF1F788
:101BD000FEF76CFFD2E08A4201D082423DD1FEF78F
:101BE00065FF00EBC00101EB001061684900B0FB2C
:101BF000F1F0B0FBF5F00601FEF758FF00EBC00175
:101C000001EB001061684900B0FBF1F7FEF74EFFF1
:101C100000EBC00101EB001061684900B0FBF1F07E
:101C2000B0FBF5F06FF01801484307EB800108EBBB
:101C3000C100B0FBF5F000F0F80006EB4006FEF73F
:101C400035FF00EBC00101EB001061684900B0FBFB
:101C5000F1F7FEF72BFF3CE055E0FEF717FF00EB36
:101C6000C00101EB001061684900B0FBF1F0B0FB6E
:101C7000F5F00601FEF70AFF00EBC00101EB0010D2
:101C800061684900B0FBF1F7FEF700FF00EBC0010F
:101C900001EB001061684900B0FBF1F0B0FBF5F01A
:101CA0006FF01801484307EB800108EBC100B0FB5F
:101CB000F5F000F0F80006EB4006FEF7E7FE00EB5B
:101CC000C00101EB001061684900B0FBF1F7FEF7BD
:101CD000DDFE00EBC00101EB001061684900B0FBC4
:101CE000F1F0B0FBF5F06FF01801484307EB80010D
:101CF00008EBC100B0FBF5F000F0070021683044AC
:101D00008860BDE8F081FEF7C1FE00EBC00101EB89
:101D1000001061688900B0FBF1F6FEF7B7FE00EB3A
:101D2000C00101EB001061688900B0FBF1F0B0FB6D
:101D3000F5F06FF01801484306EB800108EB011045
:101D4000B0FBF5F000F0F006FEF7A0FE00EBC001DE
:101D500001EB001061688900B0FBF1F0B0FBF5F019
:101D600006EB0016FEF792FE00EBC00101EB00103F
:101D700061688900B0FBF1F7FEF788FE00EBC00157
:101D800001EB001061688900B0FBF1F0B0FBF5F0E9
:101D90006FF01801484307EB800108EB0110B0FB1E
:101DA000F5F000F00F00A9E7001401400010014019
:101DB00090F83910212901D0022070478168B1F5CF
:101DC000805F016A0BD04A1C026202680978516088
:101DD000C18C491E0904090CC1840ED017E0098882
:101DE0000268C1F30801516001690029016A02D04B
:101DF000491C0162ECE7891CFBE70168CA6822F014
:101E00008002CA600068C16841F04001C1600020E2
:101E1000704700000148FFF7ABBA0000E80000205F
:101E2000FEE70907090E002804DB00F1E02080F836
:101E30000014704700F00F0000F1E02080F8141D3E
:101E4000704702E008C8121F08C1002AFAD1704783
:101E50007047002001E001C1121F002AFBD170472A
:101E600070B5074D4FF4806421462846FEF724FCE8
:101E70000028F9D1BDE87040C820FEF747BB00003C
:101E800000000240FEF730FCFFF76AFDFFF76AFB37
:101E9000FFF7D0FBFFF70EFCFFF72EFC0022082116
:101EA0000848FEF70EFCFEF747FAFFF743FCFEF783
:101EB000EFFAFFF771FCFEF70CFB5020FEF726FB54
:101EC000FEE700000004024070B53220FEF7F4F98E
:101ED000044D0024285DFEF70FFA641CE4B2462C82
:101EE000F8D370BD081F000870B53220FEF7E4F982
:101EF000044D0024285DFEF7FFF9641CE4B2462C73
:101F0000F8D370BD00000020806040000000001089
:101F10006020000000008060400000000010602091
:101F200000000000000000000000000303000002A9
:101F30000909000002030300000200000000000085
:101F4000000000000000000000000000000015413B
:101F5000A832300A01010101010101010101010161
:101F6000010001020506000282FCD5584251585B6F
:101F700059575A5B5C585C5B5E6057429CFBF6DFCE
:101F8000942E0804242A281D170233474D4A4A4636
:101F90004347464542464B515857595200060E2179
:101FA0001E1C1E1C1C1E1C1D242924272825232121
:101FB000242524212125231D53F955181E181A1DE7
:101FC0001C1B1A1C191E1360FCE9192021201D1C62
:101FD0001D201F1E222324252628282626262524C8
:101FE00022212022212223242425252525231D1CCE
:101FF0001E201F1E1E2020202020201F20202020E9
:102000001F1F1E1F1F202020202020211D1D1E1EDF
:102010001F1F20201F1F2020202020202121201FC3
:102020001F2122242827245F171B1E1E1F1D1E216F
:10203000202021202022221D181D2222242C23A50D
:10204000D02A2C251D1E1E1D1C1C1D1D1C1E2120E2
:102050001E1D1F221F313267F82621264638181D03
:10206000211D1D1B201F2021202223222322222369
:102070002323232222222325252626262624232421
:10208000252525242226231BC6F8AA2024231F2029
:1020900021153E951F16191E19191B1B2214FBFC36
:1020A000EE0006000102020100010101010101012F
:1020B0000101010101010101010101010101010110
:1020C0000101010101010101010101010101010100
:1020D00001010101010101010101010100020101F0
:1020E00002010104010101010101010101010101DC
:1020F0000100010205060500E7F0A23E4A575E5FB7
:102100005D5B5D5C5A5B605C575C544EDDF8FAC504
:102110008C0A09052D2023271010435049434242C1
:10212000474F4C494B494C4B4E4E565B00051021D6
:102130001E1C1D1D1D212120222421252423211F99
:102140002022222123261F11B7F90F171A171B1D52
:102150001B1B1A181D1A1564FBF41A23201F1C1BC5
:102160001D1F202020222525252524242423232348
:102170002324232520222324252525252525211E2A
:102180001F201F1F1E202020202020202020202054
:102190001F1F1E1F1F202020202020202020202045
:1021A000202021211F1F2020202020202323222027
:1021B0002021222323241E58191D1E1E1F1D1E21EF
:1021C000202021202121221E191D21221F241C76BE
:1021D000EB2E341F1C1D1D1D1C1C1D1D1D1E1F1F35
:1021E0001D1E1F2122313328F2A021282A621A2124
:1021F0001D1A20191F1E1F222021222220212223E6
:10220000232121212121222324242525262524259B
:10221000262525262A212C2049F6F92E23241D23A4
:102220001C1C1294501C1C1620181D1B1706B2F7FC
:10223000FD5300040102020100010101010101013D
:10224000010101010101010101010101010101017E
:10225000010101010101010101010101010101016E
:10226000010101010101010101010101000201015E
:10227000020101040101010101010101010101014A
:102280000100010205030069FBE96C434F5A5E5FE0
:102290005E5B5D5B5D595A595A59506EFDF4F2AA66
:1022A0004E050D132B23222508294D574D46434437
:1022B0004A504C4A4A454E4E504D4F590003132246
:1022C0001E1D1E1E1E212120232322232223221F06
:1022D0001F212323251C1D22F78C0F1A17181E1DE2
:1022E0001A1D1A181D191463FAFB15231E1E1C1B38
:1022F0001C1E20201E2226252322222321202021CD
:10230000232424251F212223242424242426231F9C
:102310001F1E1D1E1F1F20202020202020202020C7
:102320001F1F1E1F1F2020202020202021212120B0
:10233000202020201F1F2020202020202524232192
:10234000201F2123212319521A1E1D1F1F1D1E216C
:1023500020202120212021201C1C1F22211F1F435F
:10236000F45639261E1D1D1D1C1C1D1D1D1D1D1D69
:102370001D1F1F1F242832317DF81F2F1A631921BA
:102380001D22181F1F1E1F22201F21222021232350
:10239000232121212121212223242425262525260C
:1023A00025252627222626231891F9B9142A251631
:1023B0001B2117399D201A191F1E151D1B1939FCC9
:1023C000FBD701000102020101010101010101012C
:1023D00001010101010101010101010101010101ED
:1023E00001010101010101010101010101010101DD
:1023F00001010101010101010101010100020101CD
:1024000002010104010101010101010101010101B8
:1024100001010103070300F0F3B34149525B5D5D25
:102420005D5C5D5B595C5D5B5D5541B9FCF1DE91C6
:10243000170B091C20282517043B51524A454646D4
:102440004B50525953454C4B4E4B4A58010319239C
:102450001E1D1E1F1F201F2026252521222322206E
:1024600020212324241D188CF951191A17171E1E18
:102470001C1C1A191B1C155EFCFB16211D1D1C1DA6
:102480001D1E20201E22262624232425232320212E
:102490002324232321222324252524242425231F08
:1024A0001E1D1D1F20202020202020202020202035
:1024B0001F1F1E1F20202020202020202020202021
:1024C0002020201F1F1F2020202020202323222106
:1024D0001F1F212320251C55241F1C1E1F1D1E21CC
:1024E00020202120211F20211D1B1E2122222323E9
:1024F000DE84402D211E1D1E1D1C1D1D1E1D1C1CAD
:102500001D1F1F1F172934393AF78B1F2C283B1B1F
:102510001D1D1D1C212020212021222122222223B9
:102520002322222122212122232425252525252578
:1025300025252525252524252B29DDF95A1C251B94
:10254000231B1F0E925A211D17181B1A1B1602C09F
:10255000FDFD16000102020101010101010101015D
:10256000010101010101010101010101010101015B
:10257000010101010101010101010101010101014B
:10258000010101010101010101010101010201013A
:102590000201010401010101010101010101010127
:1025A0000101010304002FFCF3744555575E5F5F82
:1025B000605F605E595F5F5D5E5451F8F4F5C3463D
:1025C0000307121E1E2423100545544A464546475C
:1025D0004B515968614B4C484947465905032023E4
:1025E0001E1D1C1E202122222623262121222120DD
:1025F00020212121222316D9F7161D1718161C1E7B
:102600001C1B191D1E1D195FFCFA2D211F1F1E1FEB
:102610001F1F20202224272725252627272623247D
:102620002525242424242526262625252526221F63
:102630001F1F1F2122222120202021212121202093
:1026400020201F1F20201F2020202020202020208D
:102650002020202120202020202020202021201F79
:102660001F1F22231F262556371E1C1C1E1C1F2120
:1026700020202120211E20221E1A1D221E251E1C64
:10268000AC9F462F231E1B1C1F1E1D1D1D1D1D1C28
:102690001E2021201F1D383834ADF8192F1F551C5E
:1026A000221E1B1C2121211E1D2225212321202029
:1026B00022232121222221222324252625252424E8
:1026C0002525252426202428251E86F8EF2A2B24BC
:1026D0001D1E24143FA4281E16191C1A1E1E134169
:1026E000F7FDA7010202020101010101010101013F
:1026F00001010101010101010101010101010101CA
:1027000001010101010101010101010101010101B9
:1027100001010101010101010101010101020101A8
:102720000201010401010101010101010101010195
:10273000010101030A038EFCCE5750545B61605FB8
:102740006160615D5E5A5D615F46A3FCFCDA690908
:102750000B08151C2020190B214A504E48464646AE
:102760004C525B6D66504F4C4B454558090327242E
:102770001E1C191C1F232624251F29261F201F1F4E
:102780002020201E201950FA9C0C1A1A19161A1D06
:102790001B1A1A1E201B1E61FCFA4B22222120202C
:1027A00021202020242628272626272727272525DD
:1027B0002525252424242525252524242525221ED8
:1027C0001E1F1F21222222201F1F21212121202004
:1027D00020201F1F20201F1F1F2020201F1F1F2001
:1027E0002020202020202020202020201F201F1EED
:1027F0001D1F2224212527434C191E1F1E1C1F218B
:1028000020202120211F20221E1A1D221F211E27C9
:102810006FBE3D36241D191B1E1E1D1E1D1E1E1DB6
:102820001E202120211D31373251F87721283B2EDF
:102830001B20211B1F21211E1C20252325221F2098
:102840002223222122212121232425262625242456
:1028500025262523202222261F2526DCFA8E23204A
:10286000211F1B1E15986516191F151C161A1E030D
:10287000F9F8FF0A02020201010101000101010150
:102880000101010101010101010101010101010138
:102890000101010101010101010101010101010128
:1028A0000101010101010101010101010102010117
:1028B0000201010401010101010101010101010203
:1028C000010102030700FCFBBA524D585C626060D4
:1028D0006161615D5C595F665A4CEFF8F5B9370686
:1028E0000A0F151A1F221409384D4F51454443470A
:1028F0004F555F7470554D494A45495A0B032C2476
:102900001E1D191C1F232623241E2F2C1F202020B0
:10291000202121201F18A7F8141C20171A171B1C90
:102920001B1C1C1F201E2059FCFA572124221F1F8C
:10293000201F202023252827262626262626252454
:102940002424242424242424242424242526221F4B
:102950001E1E1E20222221201F1F2020202020207A
:102960002020201F201F1E1F1F1F2020202020206E
:1029700020201F1F20202020202020202121201E59
:102980001E1E21232323262B6A181F1F1E1D1F21F5
:1029900020202020201F21211D1C1E21231E212B31
:1029A0003FD9373C271F1A1C1E1D1C1E1C1D1D1D38
:1029B0001E2121201E1C29353528C7DB1C271F2579
:1029C00022191C1C2020221F1A1A20242422202114
:1029D00022232221212121212324252525262625C4
:1029E0002526252424212522251D2664FAF84E2299
:1029F00023211E22174BB12D1C19191920151C1645
:102A000088FDFA5A020202010101010001010101DF
:102A100001010101010101010101010101010101A6
:102A20000101010101010101010101010101010196
:102A30000101010101010101010101010102010185
:102A40000201010401010101010101010101010271
:102A500001010203005CFDF2914353595D6462621F
:102A60006362635F5D605C635A7DFDFCF68C1605F6
:102A700006131E1C1E21180A394E574C4647484A59
:102A80005054607778594B494D4848540A032D24D7
:102A90001E1E1A1E232324212420322E1F20201F15
:102AA0001F2021221C20FAFB0B1A1A1C1A191D1CAC
:102AB0001C1F1E202027204FFCFA542125211D1DFC
:102AC0001E1E20201F2327272626262626262626CA
:102AD00024242425252524242425262626282521AA
:102AE000201F1E202222211F1F20202120202020E5
:102AF0002020201F1F1F1E1E1E1F1F2023232222D7
:102B00002121202020202020202020202322201FBF
:102B10001E1E212221212922881D1E1B1E1D1F2150
:102B20002020201F202021211C1C1E21201E1F1EB2
:102B30002CD83E372B221B1C1E1C1B1D1C1D1D1CB4
:102B40001E21211F21221E37343459F73425262F08
:102B50001C1F1D1F2320222118131B2421211F208D
:102B60002222212022212122232425252426262534
:102B700025252524222322221F20222DC1FAD51CFF
:102B8000261F1D232216A17321191918171A1A1CA2
:102B900025FDFEC102030201010101000101010145
:102BA0000101010101010101010101010101010115
:102BB0000101010101010101010101010101010105
:102BC00001010101010101010101010101020101F4
:102BD00002010104010101010101010100010202E0
:102BE0000101020401A5FDE76F484F5D5C6163636D
:102BF000636463615E615F5F48CBFDF9DE480B068D
:102C000007101E1B211D1B083A52564C49464949C4
:102C10004E52607A7A574A4C484B48540A032C2546
:102C20001F1B1A252626221F2621382121201F1F7F
:102C3000211D21231673FC76101E1C1B1C1B1A1C45
:102C40001E1E1F23211F1C34FCFC6C1E241D1D1B7B
:102C50001C22201F1E212626262625242626252541
:102C60002424242424242425242426292829272311
:102C7000201E1E212122201E202120202020202055
:102C80002020201E1E1E1F1E1E20201F2225242045
:102C900020201F2020202121212021212323211F2A
:102CA0001E1D1E1F2425251E98181C201D1E1F20BA
:102CB0001F1F1E1E202122211C181B1F1D1A22202F
:102CC00027D041322D21201B201D1C1F1C1C1D1E26
:102CD0001F202121201D212E31372DDEBD1823304C
:102CE0002F1F1C1C202121221E11161A23222121F4
:102CF00021201F20212121212222222223272523B6
:102D000025262524232220211C1B232240F4F9867A
:102D100020241A221E1745B737171B1E191A1B1716
:102D200010C3FDF8110200010400010101010101BD
:102D30000101010101010101010101010101010183
:102D40000101010101010101010101010101010173
:102D50000101010101010101010101010101010163
:102D60000000010401010101010101010001010153
:102D70000102020200BBFAE15A4C555D60646564D1
:102D800062636261605C645168FBF8FB950B050847
:102D9000011C191C201C1E073D50554D4B4648492F
:102DA0004E515E7A7A56494B474B48520A032D24BE
:102DB0001F1C1D262B2720251F1B471E1F22211FDE
:102DC0002222201D15D9F91F2017191B1B1B1C1CA3
:102DD0001C1C1E2126182620F8FA931D221C1E1BDF
:102DE0001C2020211F2225262626262528272626A8
:102DF000252525242525252625252729272825227B
:102E0000201E1E212122201E2021202020202020C3
:102E10002020201F1E1F1F1E1E1E1F1F21252420B5
:102E20002020202120202020202020202323211F9B
:102E30001E1E1F202328221D8036201F1D1E1F201E
:102E40001F201F201F1F21201C181A1D1F201D209E
:102E50002ABC4E2C282020191D1C1C1E1D1D1D1EA9
:102E60001E1F20201E241C26323A3071F72F2927DE
:102E70002F1A1D1D222020211F1110142324202071
:102E8000222020202222222223232323232625231B
:102E90002526252523201E1E191A21231A94F5FA0A
:102EA00046262222212116A6761C131D181B1B1A4A
:102EB0000A67FDFE86000100000403010101010113
:102EC00001010101010101010101010101010101F2
:102ED00001010101010101010101010101010101E2
:102EE00001010101010101010101010101010101D2
:102EF00001000103010101010101010101010101C1
:102F00000203030201D5FBE653515A606165666511
:102F1000626261615F5F5C4EB6FDF6F13E040608D9
:102F2000021D161A1F1E1C073E51554F4E46484A99
:102F30004E515D7B7B574A4B484D49520B042F2223
:102F40001E1E1F282B271C1F201B4C151D21222055
:102F50001F21221F36FAA0101B1F1C171B1B1B1B37
:102F60001B1A1C1E2F65361CF4FCAE15211D1D1DE1
:102F70001E1F1F2220222525262727272726252416
:102F800024252524242323232323252727282522FA
:102F9000222121232123201E202120202020202027
:102FA0002020201F1E1F1E1E1E1F20202024242024
:102FB0002020212222212020202122222323211F00
:102FC0001E1E20212423241E69581E221E1E1F207F
:102FD00020201F20201F20201E1C1D1F1B1E1E2303
:102FE00026A959222724241C1D1E1D1C1C1C1D1D26
:102FF0001E1E1F1F1F22201C37343B30E9B1132631
:10300000281C221D2420202023160F0F1F26201FDE
:10301000221F212020202021212121222326242398
:1030200025262525251F201D17171B202424E0F900
:10303000BB26251B22181D40B8331B181E1E1C1E44
:10304000140AFAFDDB01050600010001010101017E
:103050000101010101010101010101010101010160
:103060000101010101010101010101010101010150
:103070000101010101010101010101010101010140
:10308000020101020101010101010101010100012F
:103090000204040101DDFAEB56515660606364647A
:1030A00062636261625D5958F2FBFB9E0B1105037E
:1030B0000718191C202019073B5453545148484CF9
:1030C0004E525C7B7A574A4C494E49510B04302092
:1030D0001D1F21292C1E1F1C144B25191E1D1C21D0
:1030E000241F1D129AF96B161B1D191D1B1B1B1B80
:1030F0001A1A1A1B1888E3AAFDFBDE14231F1D1DD4
:103100001E1E1F2422232425262728282424222388
:103110002424252522212121212122242728262279
:10312000232222242123201E202120202020202091
:10313000202020201D1E1E1D1E2122221F2423218F
:103140002021212324222020212323232323211F64
:103150001E1F2122231F252257911A2420202021BF
:1031600020201E1F201F20212120202225201F1E5D
:1031700024A168252626251F1E1F1D1B1D1C1C1D86
:103180001D1D1D1E1F221F21253C3737B1F7212F82
:10319000222822212320211F2620120E162422203D
:1031A000211F211F1F1F1F1F1F2020202124232319
:1031B00025262525261F211D1816151C261453FA11
:1031C000F57C2021251D1E15AB771A1D1D1F191713
:1031D00017089CFCFD260400030101000101010108
:1031E00001010101010101010101010101010101CF
:1031F00001010101010101010101010101010101BF
:1032000001010101010101010101010101000001B0
:10321000020201020101010101010101020100009C
:103220000305040101E2FAEB5656536160626464DF
:1032300064656362625E509DFEFAF03B0D0B05050E
:103240000F1A191B1F1E16073D5554555249484D5C
:103250004D515A7A78564949484E49500C03321F0D
:103260001D1E21292D1D201C176312221D1D1D202E
:10327000231D1F21E8FA3020191A1C1B1C1B1B1BC5
:103280001C1C1A1A182388BDFDFAE22524221D1DD4
:103290001F1E2024232324252627282925242323F1
:1032A00024262525222121222222232427292723DF
:1032B000222222232123201E1F2020202020202004
:1032C0001E1F21201E1E1E1D1F21222220252421FB
:1032D0002021222424222020212223232322201FD4
:1032E0001E1F21232224212344D71C2320202121F7
:1032F00020201F1F201F1F20202020211E23211CD3
:1033000023918F1B2525211E1D1D1D1C1D1C1C1CF2
:103310001D1D1D1D2021211E153F343979F76723FE
:10332000254020212020211C2425180D0E1F23219B
:103330001F1E2320201F1F1F1F2020202023222389
:1033400025262525241F201D191612191F2A12C9EA
:10335000F9EB35222224220E53BE3A13241D1D1DE3
:10336000191A41FAFD670500070104000101010176
:10337000010101010101010101010101010101013D
:10338000010101010101010101010101010101012D
:10339000010101010101010101010101010000011F
:1033A000020201020101010101010101010100000C
:1033B0000305050102E9FDEC555B54626264666732
:1033C00067676564606152F2FBF7A60F1008080B8F
:1033D000161B1A1A1F1A1707405456535049484DC6
:1033E0004A50597776554A4A484E4A500D03331E83
:1033F0001E1E20292A1F1B192D4A1A211E2020209B
:10340000201F1B47FBD616171E1C1B181A1C1D1D40
:103410001C1C1C1A18191449FDFDF73221231E1C0F
:103420001F1E20242322232526272728272623235F
:10343000232423232221222324232425272A28244A
:10344000232222232123201E1F2020202020202071
:103450001E1F212121201E1D1E2122212125252163
:103460002020212424232221222324242121201E40
:103470001E1F21232424242239F01E232020202053
:10348000202020202120202020201F1F1C211E1C46
:103490001C94E31C272923221D1E1E1D1D1C1C1C01
:1034A0001D1D1D1D221B221C13313E3538F1BC147D
:1034B000294527222121221C21241C0D0A192422FE
:1034C0001E202321201F2021212121211F232324ED
:1034D0002626252625221F1C181410151D211B51D8
:1034E000F8F9A81D1F1F21250BD9771B1C231713C3
:1034F0001E160CE6FBC100070600000101010101D8
:1035000001010101010101010101010101010101AB
:10351000010101010101010101010101010101019B
:10352000010101010101010101010101010101018B
:103530000201010201010101010101010102010079
:103540000305050201E2FCEE6052526064666868A1
:1035500067666667655B8AFDF9F045090509070836
:1035600015181D1C201B1308395453534E4A484D3F
:103570004850577475554B4A484F4A510E02341FF4
:10358000201D1E282819191643361623221F1E2215
:103590002426117CFAB323141E171C1B1A1D1F1F8F
:1035A0001D1C1C1B1F121456FDF6FA681B221D1C45
:1035B0001F1E2023232223252626262627262322D4
:1035C000222321202121222424242425272B2B26B9
:1035D000242222232123201E2021202020202020DD
:1035E0001E1F202122211F1E1E21222122262621CC
:1035F00020202124242424242424242420201F1EA9
:103600001E1E20222521292234F0262521202020BB
:103610001F2020202120212120201F1F22201F23A6
:103620001D92F625232B27251F21201C1C1C1C1C4A
:103630001D1D1D1E201E1A25121E433A2A9FF635F7
:10364000293231212320211F202223140A0F202375
:103650001E2021222020202020202020202224245F
:10366000272625262426221D1A120F11191B211484
:10367000CDF9F88715221C1C146DD724201F1C1CA3
:1036800016200C99FDFD1600010300020101010145
:10369000010101010101010101010101010101011A
:1036A000010101010101010101010101010101010A
:1036B00001010101010101010101010101010101FA
:1036C00001000103010101010101010101020101E8
:1036D0000205050201D6FBF7754952626365686809
:1036E000656566696557C7FAFBC2120F0D090B07BE
:1036F000101C191D211E0D0A2E5650554D4B484CBD
:103700004750567273554A49454E4A500F0335206B
:10371000211D1D2827191B1265231B21212022256D
:103720001B2317D4FC642C181A1B1C1A191C211FEC
:103730001C1B1C1B1A1E48BAFCFDF9CA15201D1BB8
:103740001E1D212323212225262625252826232246
:10375000222321212121222425252525252B2B2625
:10376000232121222123211E2021201F1F20202050
:103770001E1F202222211F1D1F2122222227262137
:103780001F1E212423232424232323241F1F1E1E22
:103790001E1E2021202427232CF533222121202026
:1037A0001F1F1F1F1F20201F20202020202221211B
:1037B0001B8BF99A172524251F23221A1C1C1C1C5D
:1037C0001D1D1E1E1E211D21180E3E343944F96593
:1037D000252D331B221E1F212021281A0D091C23F1
:1037E0001F221F2120202020202020201F222325CF
:1037F00027262424222821201D15120F17192219EB
:1038000056F5F4ED461621241D28D96F1A221D1CE9
:1038100021161932FCFE5F000104010101010101C2
:103820000101010101010101010101010101010188
:103830000101010101010101010101010101010178
:103840000101010101010101010101010101010168
:103850000000010403010102010002010101010154
:103860000204050500C9FDFA8A44545D6165686477
:10387000656A61666A60F9F9FA5A0D0D0B090A0664
:10388000151C1B192325110F1B5353554E4A46492E
:103890004953557070554C49494A48510D043421DB
:1038A0001F211F282A15191474201E2020221D21D3
:1038B000211C2AFBF1171E16191C1A1A1A1C1C1D92
:1038C000211D171D1F113AF2F7FBFCF82426181EC4
:1038D0002019222224232325262626272726241FB3
:1038E00023222123232222232322242625292B2994
:1038F000212124221F2021202020202020202020C0
:1039000020201F202421212120202224242427229A
:103910001B221F242122242424232323222220208B
:10392000202021212123271F25F635261F1F1E2099
:10393000201F1F1F201F1F211F231D1E1F22222487
:103940002088FAE51D2B271F251F211E1C1B1C1E6E
:103950001E1E1C1D1D1F1A25161227443A29CAEACD
:103960001326301A21202120212125220A06112880
:103970001E20201F2020201E1E1E20201E2223234A
:1039800024242325262525231D14101118181A1A5E
:103990001CCDF6EFE2331F232811A5C3231E251CDF
:1039A0001B1C170EE1F9B40103030301000101011F
:1039B00001010101010101010101010101010101F7
:1039C00001010101010101010101010101010101E7
:1039D00001010101010101010101010101010101D7
:1039E00001010101040101020101020100010101C3
:1039F000030506050188FDFDCD5353535D696565DB
:103A0000666967635F80FDFBD51C0E080707090820
:103A1000172019192020200C0D535356514B464B9B
:103A20004A50526E70574D4A494A4A530B04362445
:103A300022221F29231C1B12891C18231D1E1F1E36
:103A40001E1875FCAB171D1513181A1A1D251C1D01
:103A5000191D211D1C1A2AD974D8FAFC3A27201DD9
:103A60001D1E1F2624232326262727272926212417
:103A7000271D222121222121212123252A24272A11
:103A8000212123201F1F2020202020202020202132
:103A900020201F20201F1F1F1E1F22242425271D1A
:103AA000211F1F21202223232322222323232121FC
:103AB000212121232422212427F48327201F1E1EB5
:103AC0001F1F1F1F221F20231F1E17192222202005
:103AD0001982FAF41B1D2329211F1F1C1D1B1C1DED
:103AE0001E1C1B1A1A1B1A20130F1C48392F74F89E
:103AF0004121392D2020211F1F1E232010070A1DC0
:103B000023202120212120201F1E1E1D1D202121B8
:103B100022212123252524231F1A151312131A1BD2
:103B20001263EDF4F1CD1A1D1E1B3EF66313211B2B
:103B30001D17190D92FCFB04040201010101010192
:103B40000101010101010101010101010101010165
:103B50000101010101010101010101010101010155
:103B60000101010101010101010101010101010145
:103B70000101010104010002010102010001010132
:103B8000030505050710FEFCF75C55585C68656881
:103B900066676A6260CFF6FB780E0F090A0A0B0AA5
:103BA0001A2215141B21250D06455B59554E4A4F07
:103BB0004B4E50696F584E4B4A4C4E560B043625AF
:103BC00023232029241D1B23971A1E1F1C1B1D1E87
:103BD0002212C4FB54161B1B15191B191D1B231B7A
:103BE000201E181F1D14A75127D6F8FA521C1E1CA0
:103BF0001C201F2424242426262728272927222581
:103C000021251F2121202021212022242B2424377B
:103C10002A221E201F1F202020202020212020209B
:103C200020201F1F1F1F1F1F1E1F22252325282383
:103C30001E1E22202021232323222223232322226B
:103C4000222222232221222619F0DF2322201F1ED6
:103C50001E1E1F20211E1F241F1B14162021202280
:103C60001682FCFB7325211A251F221C1C1B1C1D00
:103C70001C1B1A191A191B1D150F1142314332EA68
:103C8000A4192D401E1F211F211F2225130A0714CE
:103C900028201F1E21212121201E1E1C1D20202026
:103CA0002221212425262422211F18110F10171C40
:103CB0001822D3F2E6ECB90E25240CC5CA191A1D38
:103CC0002116160F48FAFE38010301010101010116
:103CD00001010101010101010101010101010101D4
:103CE00001010101010101010101010101010101C4
:103CF00001010101010101010101010101010101B4
:103D000001010101050100010102020000010101A0
:103D1000020303020F01EBFDFC994A5660626666DE
:103D20006364675E78F7F8E9310B0F090F0E0E092F
:103D30001E1F1313171F2313063A5958544F4E5082
:103D40004C4D4E606E5A504D4C4F51570B0433241E
:103D50002122202722231A2DA6171C211E1E1C1FDC
:103D60002413EEFB2C1C161A15181A1B1C231C1EE0
:103D70001A1D1C1D26BC762F35CCFDFD80161C1D82
:103D80001E1C212024232324242526272827251F01
:103D900025232122222121222221232525292447CE
:103DA000471E1C221F1F1F1F20202021201F1F20F5
:103DB00020211F1E202020201F20222422252528EC
:103DC0001C212120202223232323232323232222D7
:103DD0002222212220241E231AE4F52E252221202E
:103DE0001F1F1F20211F1F221D1B14161D201F21F6
:103DF0001685FCFAE4142A29211E1A1F1C1B1C1EFE
:103E00001D1C1B1A1C191B1B19130D2B4042329B26
:103E1000F82A25451E1F2220221F2125190F090FD0
:103E200023221E1F1F1F1F1F1F1E1F1F1E2020219A
:103E3000222222252527242121221C121311151AA2
:103E4000191488D8E0E0F38D10271560F85B1F1D6A
:103E5000181617120DF7FBA504020103000101015A
:103E60000101010101010101010101010101010142
:103E70000101010101010101010101010101010132
:103E80000101010101010101010101010101010122
:103E9000010101010501000101020200010101000F
:103EA00001010100060173FDF9D04A555F616464A8
:103EB00063616355C0FDFBCB0C140D15110F100988
:103EC000271D1515181A27160837525552525150EA
:103ED0004B4C4E586B5B524E4C4D5156090331249E
:103EE00022222025261F184598121F1E20221F203F
:103EF0001A39FAE916161318181B1D1E1C261C1C4D
:103F00001F191E21D676173954ECF1FDBE181F1E5D
:103F10001E1B1E1D2221202123252626262D1F2380
:103F2000252021242222222222222426232A283F3D
:103F3000721B1F211F1E1F1F202021211F1E1E1E3E
:103F400020211F1F20201F1E1F2121212525213256
:103F50001E231E1E2021232323232222222221224C
:103F600022212020221E222614D5F82E2321211FB3
:103F70001F1F1E1E201F20201D1D14111D1F1B1B77
:103F8000148CFCF9FD91172326201C1F1D1B1C1DE2
:103F90001D1B1B1B1A1A1A1A17120B114C3D3651F6
:103FA000F8841F35201E2320211E1E2324130B08F6
:103FB00014251F221E1C1C1B1C1D20211F2020201D
:103FC0002222222525272521212320181111151C05
:103FD0001A1950D277E5E2F3421D1C13E5CD1D16E8
:103FE0001C1F171409A5FDEB0E01010000010101C2
:103FF00001010101010101010101010101010101B1
:1040000001010101010101010101010101010101A0
:104010000101010101010101010101010101010190
:10402000010101010401000201010201010201007C
:10403000000101000A021EFCF1F06A495A655F6343
:1040400064616065F7F8FB6D0B0D0F0F1211100C1A
:10405000301B16151A1E23140B2C5F59535555513E
:104060004C4D5054675B524F4D4E52540703302510
:10407000242220242A1C127D6616211D21201F21A6
:104080001589FA9E0D13191A1A1E1D1B1A262220B5
:10409000211E22EE8E12332F2C73F9FDDD151D1A11
:1040A0001C1E191B1F1F1E1F22252627262B2B25F2
:1040B0001E271E23212121222121232526262B24D0
:1040C0009127251D1F1F1F1F1F2021211F1D1C1D84
:1040D0001F211F1F20201E1E212322212623205E98
:1040E0001B23211F1F2123232322212222222121BE
:1040F00022211F1F1C24261E1ACBF845211F1F1E1C
:104100001E1E1E1E1E1E1F201F2116111C201B1AE4
:104110001495FDFAF4FD30222822211B1D1D1C1CC4
:104120001D1B1A1A181B1C1B14100D0844403B2B96
:10413000E9D41B2C261D222122202023251507052A
:1041400009231E1D1E1C1B1B1B1D202120211F209F
:104150002223222426282622201F1D1A1316151872
:104160001A1730BD446DF6EBD00D251763F84B1FC1
:104170001A1820150E59FCFE4E0105000000010121
:10418000010101010101010101010101010101011F
:10419000010101010101010101010101010101010F
:1041A00001010101010101010101010101010101FF
:1041B00001010101040101020101020101020100EA
:1041C00001030302070100B8FCFB965255646063CB
:1041D00062655BA0FCFDE222150E120F14160F1192
:1041E00036171614161C1F130E186E5856585752B1
:1041F0004C4A4F536159514F4E4F54550803312586
:10420000221F2024232411B33C1F1622201F1C240C
:1042100016D5FA56151E1E1A16191C1C212221230A
:104220002310D8C90F272E302C29ECFBEA29191DA1
:104230001C1F1A1D21212121232627262623312E4A
:104240001F242320212121222221232526252B1A48
:10425000944D221D1F1F1F1F1F2021211F1E1C1DCB
:104260001F21201F20201F1E2021222224231E84E4
:104270002A1E241F1E20222222222222232322221F
:1042800022211F1E241B22261EBEF97F21201F1E55
:104290001E1E1F1F1E1D1D21212319151A211E1D43
:1042A0001498FDFCF1FCD5112A20251D1D1D1C1D97
:1042B0001D1C1C1C1A1A1C1B17100C082B49323A07
:1042C000B8F73A34301E22201F212222201B060676
:1042D000071B1B1B1D1C1C1D1D1E202020211F1F1A
:1042E00022242324252524231F1C1A1A16191719E2
:1042F000252727C5512090F0F77C10241DF8AF1416
:104300001F1D1D1C151BFCF971010103000001019B
:10431000010101000101010101010101010101018E
:10432000010101010101010101010101010101017D
:10433000010101010101010101010101010101016D
:10434000010101010301010201000201010101015A
:10435000020405050204013EFCF5E04F555E65646C
:104360005D6956DDFDF8A4051015111314180D151F
:1043700036171517131024150F0B664F5857565242
:104380004A464C515D564F4F4F5157570905312200
:104390001E1B1E25221C1BD7221C1B1C1D211C247E
:1043A00017F7FA3D121A181B1C1D202321241E2862
:1043B000138CF82322222D343536B4FBFB4F1D23FA
:1043C0001E1C22202325252526282725252B13558D
:1043D0001A1F232422222223222224262329291DB4
:1043E00088741B201F1F1F1F1E202021211E1C1D23
:1043F0001F2120201F201F1E1E1F1E1F20261A8265
:104400004E1B211E1F212223232223232323222369
:104410002322201F202123211CC0FAB52421201E85
:104420001E202122221E1E22222319181A221E1AA1
:104430001091FBFDA4D0FD4324281D1F1D1C1C1D35
:104440001E1D1E1F1D181A1A1A1208080E49333491
:1044500065F888233B21221F1C1E1F1D22260907E9
:1044600006121C211C1C1E1F201F201F1F1F1D1E8B
:104470002022222221222224211D1C201C1B1B1C45
:1044800020210ED56D2A26E2EBF3391E0F9BFA335D
:104490001F172519150AC9FDBB01080700010101F5
:1044A00001010000010101010101010101010101FE
:1044B00001010101010101010101010101010101EC
:1044C00001010101010101010101010101010101DC
:1044D00001010101000101010001010201010102CC
:1044E0000304040505030000D4FAF1754757615E23
:1044F000695C7AFCFCFA45110C1611181716101F8E
:10450000381519131512211E130C446A535D5A55A0
:104510004D4B4C53595251514D5355570508342169
:104520001D1C1F25221F1FDC151F1B191D1E1B1BF9
:1045300049F9F310211B1A191E1D212322232228B9
:1045400030F7891722242C3134407DFAFB7C1D2062
:104550001C211D2623222426262626272424235AEE
:104560001D22232121212121212223242329262127
:104570006E891D1D1E1F20201E1F1F211F1B1C1AA0
:104580001E1F221F20201E1F20201D2020221C87CE
:104590007F16241F1E2122232222222322232323AB
:1045A000222120201E2420231BC6FBCC1723211DE3
:1045B0001E1F222122241E20221E1A1016201E1F1A
:1045C000138FFCFCBCB5FEEE122A211C1F1E1D1C05
:1045D0001B1C1D1E1C1B1A1C1C130A090B3C363409
:1045E0002EEFE31C4C281A201C1C1D202422070936
:1045F000080F191F1D1D1D1F1F1F1F201F1D1C1D04
:104600001F22242221261F2420211A1F1D1F1C1CAB
:10461000222114A4BF231D42E8F0C8151E29FBA4C3
:104620001022191A161081FDF80200030101010180
:10463000010100000101010101010101010101016C
:10464000010101010101010101010101010101015A
:10465000010101010101010101010101010101014A
:10466000010101010001010100010101010101023B
:10467000020304040006030159F7FCC9404A5462CE
:104680005E53C3FBFDE70B12181B181618171326F1
:104690003919171414121A21131C0D8F55595C5A0D
:1046A000514C4D51534F4F524D54555704073523DC
:1046B0001E1C1F22201E33CC141E1C1B1B21271561
:1046C00091FAB3161E1919181C1C1E202320250E42
:1046D000C9F61227222428333E3F88FAFA80162092
:1046E0001E1C222224232526272626262D1C204573
:1046F000421A252422222222222324242726262568
:1047000038B31C221F1F1F201E1F20211D18181820
:104710001E2024201F201F2222201F1D22201B7E3E
:10472000BF1D1F1E1E2122232222222322222323D9
:10473000222120202221242415CBFCF632232626F8
:10474000211D2524221F1A1414171108121C201EC3
:10475000128EFDFCC266FBFD8E1D1F1F1E1D1C1C44
:104760001D1D1E1F1C1C1B1D1F170E0C07332F3673
:1047700027A1F83C39481C201D231B1D22220906B5
:10478000080C181F1C1E1F20201F1F1F201E1D1E6F
:1047900021232424211F262A1C1722191F221E220E
:1047A000211F1B55F93B251E5BF0F76A1509BCFC60
:1047B00025261A19161026FCFE55020601010101D4
:1047C00001010000010101010101010101010101DB
:1047D00001010101010101010101010101010101C9
:1047E00001010101010101010101010101010101B9
:1047F00001010101010101010101010101010101A9
:10480000020203030404060500F8F7EF8B3F5A4A3F
:10481000606BFAFDF98A091A16161B181815113261
:10482000341A141513151C261B1D07755E585C5C85
:10483000514B5052514E50534F55565B030636253F
:10484000201D1E1F1E1457BB0A201E1A20241E12D4
:10485000ABFAA00F221E1E1C211F22231E27205E42
:10486000F74A19191A252D364239C5F8FB86131D4A
:104870001E1A21202322242627272627212F212FF5
:104880007621281B222121212122222323212527B1
:104890001DA342181F1F1F1F1F1F20211C131215AD
:1048A0001D2124211F211E23211D231B23221E76AF
:1048B000F0191C201E20222323222223222222221E
:1048C00022222221201F221D13D1FBFB62221F1E48
:1048D0001D1E262127130C08090902040A14201B97
:1048E0001189FDFAD42BE2FCE91D2A1C1C1C1D1D9C
:1048F0001D1D1D1E1D1D1C1F2019100D081D3F35DF
:10490000364BF88B1862121E23211E211E220F0720
:104910000809171E1C1E2222201F1F1F201E1C1DDF
:104920001F212223232321212E1D1E2C1F21202362
:1049300023212413F98D1F2C2561ECF3251A3EFC4D
:104940009C201D17141B07F2FEA6010401010102A1
:104950000101000001010101010101010101010149
:104960000101010101010101010101010101010137
:104970000101010101010101010101010101010127
:104980000101010101010101010001010101010118
:1049900001010202040601080067FAFBDD3B484DF5
:1049A0004EBFFDF7F523191A161A181519120D42E4
:1049B0002C1A1715121317222014142E66595E5E36
:1049C000534D5151525051524F55575E030638289E
:1049D000221D1E1C1E139997141E1E201D2524180F
:1049E000DEF86B24231F1E1D201E2221252314F414
:1049F000B413181A24203137444CF8FDFC90131AD4
:104A00001A1E1D1F201F2123242526272728212782
:104A1000AD18232222212121212121221E242325F8
:104A20001F795F191F1F1E1F1F2020201D130E122C
:104A30001A20222021221E231B14241C2223207230
:104A4000F817201F1F202223232222232222222282
:104A50002323222221221F1D18D3FDF9751B211F9C
:104A60001F1F24201F06010202000001050B201A4F
:104A70001185FDF8DC2E91F9FD6B1C221D1D1E1EFB
:104A80001E1D1D1D1E1E1C1E201A100B0A0C3C3460
:104A9000383EF1DD177A1424221E1D1D1C22160B30
:104AA0000808141B1C1F22211F1F1F1F201E1C1C57
:104AB0001E20212123211F1E492E261C2020211EBD
:104AC0002625250FBCED0F3127138DF5CA1012CD09
:104AD000FC2A191918120BA5F8FA040501010102A4
:104AE00001010000010101010101010101010101B8
:104AF00001010101010101010101010101010101A6
:104B00000101010101010101010101010101010195
:104B10000101010102010101010000010101010186
:104B2000010101010500020F0300EFF1F29B344A7D
:104B300049F3FAFDBF0A191B1816131D180F0F4D64
:104B400024191C141513121C222116115E5D5F63BB
:104B50005A52524E505050514E54555E03073A2A05
:104B6000221D1F1C220FD18212201E1C21211D3844
:104B7000FAF93A1C201D1C1B1E1D2020211798F736
:104B8000271219151C2A354034B3FDF5FEAB131B53
:104B9000181F1B1E1E1D1E1E202224252624242015
:104BA000864624222222222222232323271F25274E
:104BB0002342961A1F1F1F1E1F2020201E130B0E9C
:104BC000161E212020212023160A231E20221D70BC
:104BD000F822231C202022242422232323232323DE
:104BE0002323232424211D2419D6FDFD851C2721E0
:104BF00023211B160D0501030000060104061C1BE2
:104C00001283FDF8ED2F3EF7FADC1C231C1D1E1E3F
:104C10001E1D1E1E1F1F1D1E1F1A100A10064436C1
:104C2000402F9AF9356D351B1E21231B1C211C0DAD
:104C3000070710171C20211F1E1F201F211F1D1CCE
:104C40001D1F21221F232220337A141D2122211E01
:104C50002523221C5DF94D1F2E2617BBF695034F09
:104C6000FD89191C1B190E41FDFC440001010102C4
:104C70000101000001010101010101010101010126
:104C80000101010101010101010101010101010114
:104C90000101010101010101010101010101010104
:104CA00001010101030100020200000101010101F3
:104CB0000101010103060102010257FCF1EB72360A
:104CC00063F9F8FD570F11151C1C1814130D1B4F19
:104CD0001F1B1C121418161B232916154A615F602E
:104CE0005A5655524E5050514F54555E03083E2D62
:104CF000221D201D1C0DF2521D1A1A1D1C231565A4
:104D0000FBD91922211E1E1D212124231D38F890B4
:104D1000152015201B272E414CF7F9F3FED1171E45
:104D20001A1C1F1C201F1F1E1F2224252923281F79
:104D300049831726232221212222222224212427CB
:104D40002131A423201F1F1F1F1F20201F150B0C04
:104D5000101B20211E20222315051D2123231D6643
:104D6000F82D1E1F201F2225242323232323232342
:104D7000232324252220202615E9FDFD951B221D35
:104D800024201109070A0D120B0105030203161B4B
:104D90001185FCF9E8303DEFFAFC531418191B1B80
:104DA0001B1C1D1E1E1F1E1E1F1B120C0708224649
:104DB000363B75F4875869221A291A1D1D1E1D11CC
:104DC00004050D131A1F201E1D1F201F211F1D1B50
:104DD0001B1E1F2124202227179A1C2120211E235D
:104DE000211F222212F4EC142A2E2418D2F8490191
:104DF000FDFC0D1E1D1C1F12FDFDBA01010102026A
:104E00000101010001010101010101010101010193
:104E10000101010101010101010101010101010182
:104E20000101010101010101010101010101010172
:104E30000101010103010002020000010101010161
:104E40000101010101000209080102E5F5EDE55C3F
:104E5000D3FCFED308101E1914171A120E0E30437D
:104E60001D1C1A121015191A1F221B1931665F5DBD
:104E700059575758505251515055555E03094130BA
:104E8000221D201D1E0EF53D162020201B201F82F6
:104E9000FBB71F1E211F1F1E2221222110C4F72332
:104EA00014181D1A2126372597FBEDCAFCED231E89
:104EB0001E1A211B2121211F20232525262B222BD1
:104EC0001FA4172722222222222122222021252745
:104ED0002A19A72320201F1F1F1E1F2020190D0B7A
:104EE0000B181F211F1E242315031A2426241F5FBD
:104EF000F83C1D212020222525232323232323239F
:104F000023232424232325251CF7FEFB9A17212283
:104F100023180806060713201C0B03050003101AAC
:104F20000F8CFDFBCF2C337DF9FEC42917181919FE
:104F3000191A1B1E1C1E1D1E1F1B140F0C0B1743C2
:104F40003E3B51F6CC28931324191D1E1E1B1F1720
:104F50000408090C171D201D1D20201F1F1E1B1AD1
:104F60001A1C1E202224212813932F1D1F1F1E23CD
:104F70001E2021221392F9661A26262524F0FC060B
:104F80006BFA881421220D0DBEFEF4050101020208
:104F90000201010001010101010101010101010101
:104FA00001010101010101010101010101010101F1
:104FB00001010101010101010101010101010101E1
:104FC00001010101030100020200000101010101D0
:104FD00001010101030103010407032CFCF0EDE3CF
:104FE000FCF0FD5F0C16161A171A18130D10433833
:104FF0001D1E1A151614191A1D231D231B66615F29
:105000005B5855585253504F4F54545E0108433328
:10501000231D201C1E11F226151D1E1E1C2211B060
:10502000FB7C2226222022202523221F42FA9E14C6
:105030001E151B1C1F293833EAFCAF8AFBFB2F1CF3
:10504000211D1D1B1F1F201F1F2325242A25272A42
:105050001C923223222122222323232321242523AD
:105060002A1A8435202021201E1E1E1F221B0F0BF2
:1050700009161D1F201F2423140119282620216032
:10508000F84F211E202022252523222323232323FA
:10509000232323232321202224F5F9FEBB211F22D1
:1050A0001E1102000104131F251B070400060D1A20
:1050B0000F93FDFCB8254137E5F4FA2619191A1AA1
:1050C000191A1C1E1C1E1D1C1E1B140F0D0E0F4238
:1050D000414134DCF72AA3201A251C201F1A201E68
:1050E000060A0808141C201E1C1F211F201F1C1A42
:1050F0001A1C20212321232319707A18221F231F11
:105100001D241A272445FBCC11232721243FFBE330
:1051100000F5F7111B1D19107DFEF74B0101010170
:10512000010101010101010101010101010101016F
:10513000010101010101010101010101010101015F
:10514000010101010101010101010101010101014F
:10515000010101010401000202010001010101013C
:10516000010101010201000306010801A5FEE8F9A1
:10517000FCFCDC05111415191A191A111016472A0E
:105180001C1A1A1716171616161E242320258668B1
:10519000585C5C58565252505054585E0B054B2D7B
:1051A000261E211E1A3DD91A161B201C19210FEF8D
:1051B000FB3524252521202520212614E7FA22214C
:1051C0001A131D1A1F302B93FCF94561F9FE3F1D80
:1051D000201F1D1C1F1E1F22232323262C282A2AA2
:1051E000335A58202524221F272322242323242511
:1051F000281F476F1E1F20211D2120212321180C4D
:105200000B141D2025222327160110282320235BA1
:10521000F86A202023222323232525202323242446
:10522000232322222322241B28FAF6FEE8212A1C0B
:1052300020120401030808101F1E10050008111792
:105240000C97FDFCA930332E8BF9FC7F1E191F1A19
:10525000211F1C1E1C1E1D1C1B1B1B17121013368E
:10526000454528ABF96685581C201E1C1F1A201EB8
:10527000110A0B0E13191C1C1D1F20201E1E221AA2
:10528000161D1F20202428252345C51327211E1F56
:1052900023201E1E2022E7FB791E1D2325177DFCDF
:1052A000BC51FC89161F1F1453FCFE940107040017
:1052B00001010202010101010101010101010101DC
:1052C00001010101010101010101010101010101CE
:1052D00001010101010101010101010101010101BE
:1052E00001010101040100020201000101010101AB
:1052F00001010101010208030104030224FBFDFC7A
:10530000FCFB62080F111B17181B190E14234625EE
:105310001C191A1716161515161C22221F0F249772
:10532000745F595C5352525050555C600D0A432AC9
:1053300026251D231566C40D211B1C1E1B1D29F8C7
:10534000FA26282629222522202B1289F9731C18D7
:10535000151E17222C2C41F9FB8C3F3EEEFE7317D5
:105360001C1C1C212221212325252526282A2A2D03
:105370002C42821C2525212222242322212424247C
:10538000272329981E1F221F1E22212120201A10A8
:1053900008131D22242324281701102726211D5C11
:1053A000F88A3A1E22212223232423202323232385
:1053B000222221212224221F2BFAF9FEF93C21224C
:1053C00022160900000001050E0E0907030710163A
:1053D0000E9DFCFB9D31373542F3FBE5151C1F1F6D
:1053E0001E2220211D1E1D1C1D1D1C1B16160F22FA
:1053F000493D3369F99443721D1D211D1E1A201F5A
:10540000120A0A0E10181B1C1D2121211F20231B0C
:10541000161B1D1E222524251E22C11E1C20221FF4
:1054200020211F1D211BBBFBE30D2A1A20240CA3E6
:10543000FD9AE7EE09211E191AFDFB9C00050502E5
:10544000010002010101010101010101010101014C
:10545000010101010101010101010101010101013C
:10546000010101010101010101010101010101012C
:10547000010101010301000202010001010101011A
:1054800001010101020000050605080D00FAFCF704
:10549000FDDC0514111316151D1A120E1F32481EBD
:1054A0001D191B1818171716161C20202113152953
:1054B0007D655F5E5D57505153565D6032062C2A04
:1054C00027272021159494131D201D1C1D1E3FF815
:1054D000F51D2C232525272828252AF7D3141C1A47
:1054E0001E1B171D2825BDF8F941483CC3FCB81305
:1054F0001C201C1B1F1D1E22232321222725292A95
:105500002D2A762027212322252125222226242404
:10551000272318A92F20221F1F21232220221E16F5
:1055200008111D222423242918020F272420215981
:10553000F8895F1C222121222224242123232323D2
:10554000222221212223201E34FAFBFCFB4A1920AF
:10555000241F170B060101020302010303081214A2
:105560000FA6FCFB9832424338A8FBFC6B162322A3
:10557000211D281D1E1D1D1D1F1F1F21181B0D1362
:10558000413D3C35F9CA28831B1D1D1E1D1C211FD2
:10559000150B070B0D151A1C1F2121202021221C81
:1055A00015191D1F2227242A2719AD5A152023203B
:1055B0001F21201D1D187CFAF950201A251F1E12CC
:1055C000D6FBE4FD271B231F08D6FDB60B00030105
:1055D00000040003010101010101010101010101B8
:1055E00001010101010101010101010101010101AB
:1055F000010101010101010101010101010101019B
:105600000101010103010101020101010101010187
:1056100001010101000506050401090802D9FEFC8B
:10562000FD580C0E131612161B19150F2C384B1A99
:105630001E191B1A1B1B1A18171B1F1E1E18200CC5
:105640001D8A62585B57535656545C6255011229A5
:105650002A27261817AF641B1D19241A1C2350F97A
:10566000CE222D26282928292814ABF73524191BEA
:105670001A191A22215CFAFD8545373C98FCE11580
:105680001A2020201F1F2023242322242A26292AEF
:105690003328522C29232322282223242224242184
:1056A00026201E81631E1E201F1F22232123221D50
:1056B0000A131D212423252B180210272222245BE4
:1056C000F876871B22212223232425222223232527
:1056D000242423222320231943FAFBF8FB431D1C17
:1056E0002323222020120E110E0A0702010B15148B
:1056F0000FADFDFB86333B453E4AFAF9CF141F1D23
:10570000211F1C211E1C1C1E212021221B17130FD0
:10571000333F3D2ECCF93C801B201D1C1D1C201F3F
:10572000180C05070B131A1B1E20201F1F20211CFD
:1057300016181E201F252125271A649315211F1FC7
:10574000221F211C1C1935F8F8BA0C1B201E1E2123
:1057500027F0FCF7A4122024119EFED73E01080179
:105760000300000201010101010101010101010128
:105770000101010101010101010101010101010119
:105780000101010101010101010101010101010109
:1057900001010101020101010101010101010101F8
:1057A000010101010A00060404070E0302FCFDFAD0
:1057B000D1021A1015171717111A171935374D1767
:1057C0001F181A1B1C1B1B1A181C1E1E222319171C
:1057D0000B486F5A5E5A535254565C5E6501052A57
:1057E0002B25251813C739201E1B1F1F1C2078F9D5
:1057F000912C2E2D2729252B2732F7A016141D1AA0
:10580000211A151D24E8FAED3B383F3E6DFAF12FC1
:105810001D1C1D242221212121212327282C262D56
:10582000312D462C292B242526261F232120231FFA
:1058300023202846A81A1E211F1F222322242523A5
:1058400010181E202324262B1802102724231D6144
:10585000F77BA71B24232425252527252221232563
:10586000272724222421271752FBF8F9FB46231F60
:10587000202024262B232225211D1406061116186C
:105880000EB2FDFB703940424435CFFCF93B1E237C
:105890001F19221C1D1C1C1F202020221F151E0F3B
:1058A0002C3C3C3785F8717421211C1E1C1C1F1ECA
:1058B0001C1004070B141A1D1F201F1E1F21211D61
:1058C00017181E2025282725262527C31E211E1E22
:1058D000231E211B1F2013B5FAFC331A1E211D2184
:1058E000144FF2FBF9102621177EFAF3BC040001D5
:1058F0000101020101010101010101010101010197
:105900000101010101010101010101010101010187
:105910000101010101010101010101010101010177
:105920000101010102010101010101010101010166
:1059300001010101000A02040A0003007EFEFDFCD1
:10594000450E081315181A1514160E34383A471850
:105950001E18191B1B1A1B1A191C1E1D212A211186
:105960001E1469575552514D4F5556577A020432FD
:105970002722221C16D41C2419221B212119ACFA1F
:105980005E3633303329302F15C7F52C1519191E03
:105990001B18211198FBFA873A413C3D45F9FB550C
:1059A0001A1A1A1D211F1F1F1E1F252B2C2E292BD3
:1059B0002E2F3B2C2A2F2F222825231F221F231F67
:1059C00021242625BF2E20201F2023222123242608
:1059D000191E21212324282E1903102723221E619A
:1059E000F684BE19252425272525262722232325AD
:1059F000262624222323251867FBF2FBFC551C24B2
:105A00001E1E232226222424202220141017171EB3
:105A10000EBDFDFA543A423E41396CF9FD9519220A
:105A20001C1E1D1C1D1C1D1F20201F1F1E1D1C17A2
:105A3000273D3E3B53F6C6414A1B1B1E1D1D1D1F25
:105A40001F1406080C161B1E2020201F2021201FBB
:105A500019181F1F20212624232718C5401D1F1D8C
:105A6000201E231C1D1A1B5BFBF589121E181D1E10
:105A7000201621DDFB961329123CFCFBCA6E0303A2
:105A80000200020001010101010101010101010106
:105A900001010101010101010101010101010101F6
:105AA00001010101010101010101010101010101E6
:105AB00001010101010101010101010101010101D6
:105AC000010101010902000700030703FEFAFDD2EC
:105AD000040D101414181814180F174237463F1BE2
