:020000040800F2
:10000000C8040020A9010008D7160008011500083F
:10001000D5160008B5020008191D000800000000F0
:10002000000000000000000000000000511800085F
:10003000B70200080000000011170008531800085C
:10004000C3010008C3010008C3010008C301000880
:10005000C3010008C3010008C3010008C301000870
:10006000C3010008C3010008C3010008C301000860
:10007000C3010008C3010008C3010008C301000850
:10008000C3010008C3010008C3010008000000000C
:10009000000000000000000000000000C301000894
:1000A000C3010008C3010008C3010008C301000820
:1000B000C3010008C3010008C3010008C301000810
:1000C000C3010008C3010008C3010008C301000800
:1000D000C3010008C30100080D1D00080000000056
:1000E000C3010008C3010008C301000800000000AC
:1000F000000000000000000000000000C301000834
:1001000000000000C3010008C3010008C30100088B
:1001100000000000000000000000000000000000DF
:10012000C3010008C3010008C3010008C30100089F
:10013000C3010008000000000000000000000000F3
:10014000000000000000000000000000C3010008E3
:10015000C3010008C3010008C3010008C30100086F
:10016000C3010008C30100080000000000000000F7
:10017000000000000000000000000000000000007F
:1001800000000000C30100080000000000000000A3
:10019000C3010008DFF80CD000F07AF800480047EF
:1001A000591D0008C804002006488047064800473B
:1001B000FEE7FEE7FEE7FEE7FEE7FEE7FEE7FEE717
:1001C000FEE7FEE7E5180008950100082DE9F05F5D
:1001D0000546002092469B468846064681464024B6
:1001E0001BE0284641464746224600F041F8534668
:1001F0005A46C01A914110D311461846224600F0C3
:1002000028F82D1A67EB01084F46224601200021ED
:1002100000F01FF817EB00094E41201EA4F1010465
:10022000DFDC484631462A464346BDE8F09FD2B25D
:1002300001E000F8012B491EFBD270470022F6E7CF
:1002400010B513460A4604461946FFF7F0FF20464C
:1002500010BD202A04DB203A00FA02F1002070478A
:100260009140C2F1200320FA03F3194390407047F4
:10027000202A04DB203A21FA02F00021704721FAFB
:1002800002F3D040C2F12002914008431946704762
:10029000064C074D06E0E06840F0010394E80700D3
:1002A00098471034AC42F6D3FFF778FF5058000857
:1002B00070580008FEE7704731B50C4D4FF480448C
:1002C00000222146284600F0CBF90022A11108485F
:1002D00000F0C6F9FF2301226946064800F054FFEA
:1002E00001222146284600F0BBF938BD0004024037
:1002F000000002403000002031B50C4D4FF4804426
:1003000000222146284600F0ABF9012211020848DC
:1003100000F0A6F9FF2301226946064800F034FFE9
:1003200001222146284600F09BF938BD0004024016
:10033000000002403000002070B5474D4FF40074BB
:1003400000222146284600F08BF9642000F0B2F824
:1003500001222146284600F083F91220FFF7ACFF66
:10036000642000F0A7F87420FFF7A6FF5420FFF7E1
:10037000C3FF7E20FFF7A0FF3B20FFF7BDFF2B2030
:10038000FFF79AFF0420FFF7B7FF6320FFF7B4FFE2
:100390000C20FFF791FF8B20FFF7AEFF9C20FFF7AB
:1003A000ABFF9620FFF7A8FF0F20FFF7A5FF012066
:1003B000FFF782FF2B20FFF79FFF0120FFF79CFF35
:1003C0000020FFF799FF1120FFF776FF0120FFF7CC
:1003D00093FF4420FFF770FF0020FFF78DFF3120CF
:1003E000FFF78AFF4520FFF767FF2B20FFF784FF09
:1003F0000120FFF781FF0020FFF77EFF0020FFF7BD
:100400007BFF3C20FFF758FF0120FFF775FF182006
:10041000FFF752FF8020FFF76FFF2220FFF74CFF0E
:10042000B120FFF769FF2020FFF746FF4FF4C870A7
:1004300000F040F84E20FFF73FFF0020FFF75CFF81
:100440004F20FFF739FF2B20FFF756FFBDE8704024
:100450000120FFF751BF00000000024010B522202C
:10046000FFF72AFFC720FFF747FF2020FFF724FFF1
:10047000BDE810404FF47A7000F01CB810B51020A1
:10048000FFF71AFFBDE810400120FFF735BF7047A6
:1004900090F83510022903D0802141650120704772
:1004A000052180F835100068016821F00101016024
:1004B0000020704770B5044600F0D8F80546601C6F
:1004C00002D004480078044400F0D0F8401BA04259
:1004D000FAD370BD000000202DE9F84FDFF860B1BD
:1004E00000224FF001084FF0030A4FF00F090BF103
:1004F000040E00BF0B6808FA02F42340A3426ED139
:100500004D68022D01D0122D0ED1D50800EB850CBF
:10051000DCF820505607F70E09FA07F6B5430E69C6
:10052000BE402E43CCF82060066855000F790AFAC9
:1005300005FC07F0030726EA0C06AF4037430760C7
:100540004E68012E05D0022E03D0112E01D0122E9E
:100550000ED18668CF6826EA0C06AF403743876025
:100560004668A6430C79C4F30014944034434460B5
:10057000C6688C6826EA0C06AC403443C4604C68FC
:10058000E40056D52F4C256845F480452560246845
:1005900022F0030504F4804400942B4C2E19D6F865
:1005A000084895072F0F09FA07F5AC43274DA842D5
:1005B00001D1002515E0264DA84201D1012510E00A
:1005C000244DA84201D102250BE0234DA84201D1C0
:1005D000032506E0214DA84202D1042501E028E0D0
:1005E0000725BD402543C6F80858DBF800405D46A6
:1005F0004E689C43F60300D51C432C60DEF8004097
:1006000075464E689C43B60300D51C432C600C4DC8
:1006100008352C684E689C43F60200D51C432C60BC
:10062000074D0C352C684E689C43B60200D51C4320
:100630002C60521C102AFFF45DAFBDE8F88F00005B
:10064000003C0140443802400030014000000240BC
:100650000004024000080240000C0240001002406A
:100660000AB1816170470904FBE700000148806816
:1006700070470000000000200248816802781144A1
:1006800081607047000000200B4810B5016841F4FC
:1006900000710160016841F480610160016841F40A
:1006A00080710160032000F06FF8002000F006F870
:1006B00000F024F8002010BD003C024070B50D4D44
:1006C00004464FF47A712878B1FBF0F00A490968C2
:1006D000B1FBF0F000F006FE48B9102C07D2002262
:1006E0002146501E00F030F800206C6070BD0120E3
:1006F00070BD0000000000200C0000200A4808B572
:10070000016841F480410160006800F4804000907D
:100710000548001F016841F080510160006800F049
:100720008050009008BD000044380240002809DBDA
:1007300000F01F02012191404009800000F1E020FB
:10074000C0F8001170470000F0B40E4B1B680C4657
:10075000C3F30223C3F10705042D00D90425191D95
:10076000072901D2002300E0DB1E012606FA05F16D
:10077000491E214099409E40761E16403143F0BCF0
:1007800001F0CBBA0CED00E0064900F00702086862
:100790004FF6FF03184040EA0220034A1043086066
:1007A000704700000CED00E00000FA052DE9F84369
:1007B000044600684FF00109C1074FF0000601D15F
:1007C000400727D5DFF81C81C8F86860FFF74EFFA7
:1007D0000746454D05E000BFFFF748FFC01B022854
:1007E00057D828680001F7D460688101207A41EA6F
:1007F00000703D4984310860C8F86890FFF736FF03
:10080000074604E0FFF732FFC01B022841D82868E2
:100810000001F7D52078800752D533484030016871
:1008200041F0805101600068304D00F08050009030
:10083000286840F480702860FFF718FF074604E03E
:10084000FFF714FFC01B022823D82868C005F7D57E
:10085000254D7035286810F4407020D0A18901F42E
:10086000407181421BD0286820F440712048C0F8B4
:100870000090066029602868C00710D0FFF7F6FED8
:10088000064641F2883707E0FFF7F0FE801BB842CA
:1008900002D90320BDE8F88328688007F4D5E16811
:1008A0001148C1F301220830032A12D0016821F453
:1008B000F81101602868A189C1F30B010843286081
:1008C0002078000703D50B49207CC1F8E001002007
:1008D000E0E70268084B22F4F81219400A4302606C
:1008E000E8E7000000004742003802400070004086
:1008F000400E474200104742FFFCFF0F2DE9F04732
:100900000E46050065D0DFF81481D8F80000F7B274
:1009100000F00F00B04207D288F80070D8F800004D
:1009200000F00F00B04254D128683D4C810712D529
:10093000400703D5206840F4E05020602878000785
:1009400003D5206840F4604020602068A96820F04A
:10095000F000084320602878C0072DD0304968682F
:100960000839012812D0022813D0032811D00968B1
:10097000890700292DDA216821F003010143216054
:10098000FFF774FE814641F2883A0EE00968890358
:10099000EFE709688901ECE7FFF768FEA0EB0901C2
:1009A000514502D90320BDE8F0872068696800F04E
:1009B0000C00B0EB810FEFD1D8F80010404601F0E9
:1009C0000F01B14207D90770006800F00F00B04274
:1009D00001D00120E7E72878400705D52068E968BD
:1009E00020F4E050084320602878000706D52068EE
:1009F000296920F4604040EAC100206000F036F828
:100A00002168084AC1F30311515CC84006490860D7
:100A10000020FFF753FE0020C5E70000003C024025
:100A200008380240385800080C00002004480549E6
:100A300000680968044AC1F38221515CC8407047CC
:100A40000C000020083802404858000804480549B6
:100A500000680968044AC1F34231515CC8407047DC
:100A60000C0000200838024048580008154810B50E
:100A7000006810F00C02144813D01449042A0FD057
:100A8000082A0ED10F4C241F2268236802F03F026F
:100A90005B0207D52068C0F38810A0FB010106E0C7
:100AA000084610BD2168C1F38811A1FB0001002395
:100AB000FFF78CFB2168C1F30141491C4900B0FBE1
:100AC000F1F010BD083802400024F40040787D01A8
:100AD0002DE9F84F050076D02878DFF8F8B2BE4C43
:100AE000C00749D0DBF800105846C1F38101012945
:100AF00008D00068C0F3810002280AD1201D0068D8
:100B0000400206D52068800336D568680028E2D008
:100B100032E06868B0F5803F10D0B0F5A02F2068B3
:100B200010D020F480302060206820F480202060E5
:100B30006868A0B1FFF79AFD06460CE0206840F413
:100B40008030F4E740F480202060F7E7FFF78EFD67
:100B5000801B642873D820688003F7D50CE0FFF76A
:100B600085FD064605E000BFFFF780FD801B642879
:100B7000F0D820688003F7D42878DFF860828007F7
:100B80004FF000093ED5DBF80010584611F00C0F6D
:100B900009D00068C0F3810002280BD18D48001FE6
:100BA0000068400206D42068800715D5E86801284F
:100BB00009D111E0E868B8B10120C8F80000FFF7DA
:100BC00055FD064605E002E1FFF750FD801B0228B7
:100BD000C0D820688007F7D52068296920F0F80080
:100BE00040EAC10020600DE0C8F80090FFF73EFD2C
:100BF000064604E0FFF73AFD801B02281FD8206854
:100C00008007F7D42878000722D5724E74486969A6
:100C10006C3671B101210160FFF728FD074604E041
:100C2000FFF724FDC01B022809D830688007F7D5DC
:100C30000EE0C0F80090FFF719FD074605E083E0DD
:100C4000FFF714FDC01B02287ED830688007F7D458
:100C50002878400768D5DFF87CA100270AF1380A18
:100C6000DAF80000C0000BD4DAF8001041F080512F
:100C7000CAF80010DAF80000012700F08050009058
:100C8000584E3068C00510D4306840F48070306031
:100C9000FFF7ECFC009005E0FFF7E8FC0099401A34
:100CA000022851D83068C005F6D54A4EA868683683
:100CB00001280FD00528306810D020F001003060E6
:100CC000306820F004003060A868B8B1FFF7CEFCAF
:100CD00000900FE0306840F00100F4E740F00400BD
:100CE0003060F7E7FFF7C2FC0099411A41F2883003
:100CF000814264D830688007F4D50EE0FFF7B6FC77
:100D0000009007E0FFF7B2FC0099411A41F28830E9
:100D1000814254D830688007F4D42FB1DAF800103B
:100D200021F08051CAF80010A869C0B3DBF80010A8
:100D3000C1F3810102294AD00228484607D0C8F8E9
:100D40006000FFF793FC00E039E005463AE04746D3
:100D5000C8F86000FFF78AFC064604E0FFF786FC4F
:100D6000801B02282BD820688001F7D4D5E9070121
:100D70000843A96A1C4A490802EB01416A6A41EA30
:100D80008211084395F82C1040EA01611148001FB8
:100D9000016001203866FFF769FC054605E014E0B4
:100DA000FFF764FC401B022809D820688001F7D5B2
:100DB0000BE000BFFFF75AFC401B022802D90320BA
:100DC000BDE8F88F20688001F4D40020F8E7012006
:100DD000F6E70000083802400038024000004742B1
:100DE000800E4742007000400000FFFF70B5040015
:100DF00002D0607F10B106E0012070BD0020207796
:100E0000204600F049F8022060772168CA20486235
:100E1000216853204862204600F086FCFF25042606
:100E200018BB206881681B4A11408160216888686E
:100E300062681043D4E904231A4310438860216890
:100E4000E068086120680169228941EA0241016184
:100E50002068C16821F08001C16020688068800638
:100E600007D4204600F0FEF818B120684562667786
:100E7000C2E72068016C21F4802101642068016CC4
:100E8000A269114301642068456201206077002057
:100E900070BD0000BFFF8FFF00680349884202D188
:100EA0000249012008607047002800403C0E47427C
:100EB0002DE9F0470446007F0B4601281FD04FF074
:100EC000010984F81C9002206077DAB19878D9780B
:100ED00040EA014558781978000240EA413005435C
:100EE0002168CA204862216853204862204600F0E9
:100EF0001BFC0026FF274FF0040860BB1AE002200D
:100F0000BDE8F0875878C10603D500F0EF000A303D
:100F10005870D87800F0FDFB0204587800F0F9FB17
:100F200042EA0022987800F0F4FB0243187842EA83
:100F30004035D5E70F480540206845602068C16806
:100F400021F08001C1602068806880060AD42046B4
:100F500000F088F830B12068476284F81D80267759
:100F60000120CDE72068476284F81D902677002095
:100F7000C6E700003FFFFF002DE9F0470446007F71
:100F80000D46012827D04FF0010A84F81CA002204A
:100F900060772068002680684FEA4060F2B1002840
:100FA00000DBEE70A878297840EA01476878E97894
:100FB000000240EA014007432168CA2048622168D4
:100FC00053204862204600F0AFFB4FF0FF084FF07F
:100FD0000409A0BB16E00220BDE8F087002800DB72
:100FE000EE70287800F095FB0204687800F091FB21
:100FF00042EA0022A87800F08CFB0243E87842EA3B
:101000000047D9E7164807402068076020688168D4
:1010100021F480218160D5E90301084321688A68B1
:10102000104388602068C16821F08001C160206899
:10103000806880060BD4204600F014F838B121688F
:10104000C1F8248084F81D9026770120C4E7216828
:10105000C1F8248084F81DA026770020BCE700009A
:101060007F7F7F0070B504460068C16821F0A00151
:10107000C160FFF7FBFA05464FF47A7607E000BF40
:10108000FFF7F4FA401BB04201D9032070BD20687D
:10109000C0688006F4D5002070BD70B5040005D08E
:1010A0000025A56294F8510010B106E0012070BD42
:1010B00084F85050204600F031F8022084F85100A6
:1010C0002068016821F040010160D4E90101084372
:1010D000D4E903121143084361690843218B01F4E9
:1010E00000710843E1690843216A0843A16A084383
:1010F00021680860A069042101EA1040616A084380
:10110000216848602068C16921F40061C16165659A
:10111000012084F85100002070BD000010B586B099
:10112000044614216846FFF789F81449206888426C
:1011300021D113480021026842F480420260006815
:1011400000F4804005900E481038026842F0020218
:101150000260006800F0020005904FF4204000900B
:101160000220CDE901010320039005200490694687
:101170000448FFF7B1F906B010BD00000038004088
:1011800040380240000402402DE9F84F044690F830
:10119000500000271D461646894601280DD04FF005
:1011A000010B84F850B0FFF761FA804694F85100C3
:1011B000BA46012804D002278EE00220BDE8F88F4D
:1011C000B9F1000F7DD0002E7BD0032084F85100B0
:1011D000C4F854A0C4F83090A686E686C4F838A0B7
:1011E000A4F83CA0A4F83EA0C4F844A0C4F840A0D1
:1011F000A068B0F5004F04D12068016841F4804137
:10120000016020680168490603D4016841F040018B
:101210000160E068B0F5006F606803D030B3012E64
:1012200024D040E008B1012E1CD1206B2168008839
:10123000C86006E020688168890709D5216B0988A4
:10124000C160206B801C2063E08E401EE08609E0B8
:10125000FFF70CFAA0EB0800A84202D3681C01D0EB
:1012600031E07DB3E08E0028E4D11FE0206B2168DF
:101270000078087306E020688168890709D5216B2A
:1012800009780173206B401C2063E08E401EE086CD
:1012900009E0FFF7EBF9A0EB0800A84202D3681CB5
:1012A00001D010E075B1E08E0028E4D14246294615
:1012B000204600F057FA08B120206065A06820B1F0
:1012C00007E008E0FFE7032706E02068C1688068C0
:1012D0000090606D00B1012784F851B084F850A0EF
:1012E00038466BE710B5401EB0F1807F01D3012076
:1012F00010BD4FF0E02460610F21601700F00DFD7C
:101300000020A06107202061002010BD7047000070
:1013100070B5026804461068D168536910F00F0F69
:1013200051D003F0010501F4907635435DD0C2073A
:1013300005D0CA0503D5E26B42F00102E263420721
:1013400005D5DA0703D0E26B42F00202E2638207BE
:1013500005D5DA0703D0E26B42F00402E26302072C
:1013600005D5DA0703D0E26B42F00802E263E26BD4
:10137000002A34D0800604D5880602D5204600F025
:10138000F1FA20684069E16BC0F3801001F00801B8
:101390000143204624D000F0D7FA2068416949066D
:1013A0001AD5416921F040014161606BA0B11B4930
:1013B0000165606BFFF76CF8002810D0606B016D61
:1013C000BDE87040084783060FD58B060DD5204633
:1013D000BDE8704000F0C6BA2046FFF797FF70BD29
:1013E000FFF794FF0020E06370BD030606D50B06EF
:1013F00004D52046BDE8704000F056BC4006F3D549
:101400004806F1D5D168204621F04001D160202165
:1014100084F8391000F073F870BD00003919000825
:1014200070B5040004D094F83900002510B106E02E
:10143000012070BD84F83850204600F023F82420A5
:1014400084F839002068C16821F40051C160204649
:1014500000F0D4FA2068016921F49041016120680C
:10146000416921F02A0141612068C16841F40051BD
:10147000C160E563202084F8390084F83A00002038
:1014800070BD000010B586B0044614216846FEF712
:10149000D5FE17492068884228D11648016841F4D2
:1014A00000310160006800F40030059011481038E8
:1014B000016841F0010101600068694600F0010027
:1014C00005900C2000900220019001200290032042
:1014D0000390072004900848FEF7FEFF0022072132
:1014E0002620FFF731F92620FFF720F906B010BDBE
:1014F00000440040403802400000024070477047FE
:10150000FEE700002DE9F04186B014216846FEF7A1
:1015100095FE2D480024016841F004010160016836
:1015200001F004010591016841F0010101600168C9
:1015300001F001010591016841F0020101600068BC
:10154000DFF8888000F00200059000224FF480410F
:101550004046FFF785F81E4F4FF440760022314693
:101560003846FFF77DF801224FF402714046FFF73D
:1015700077F844F2082000900125CDE9015469462E
:1015800040460394FEF7A8FF0096CDE90154694652
:1015900038460394FEF7A0FFA8028DE831006946A3
:1015A0003846FEF799FFC02000901220CDE90105D2
:1015B000032003900420049069464046FEF78CFF08
:1015C00006B0BDE8F081000030380240000402405F
:1015D0000000024010B586B014216846FEF72EFECA
:1015E0001B48002419490594C0E900147F2181603B
:1015F000FF21C0E9031444618461FFF7F7FB08B1E0
:10160000FEF745FF8DF800408DF801408DF802404F
:101610000394012269460E480494FFF7ADFC08B11B
:10162000FEF735FF01208DF814008DF815008DF8B8
:10163000160002468DF8174005A90548FFF738FC4B
:10164000002801D0FEF723FF06B010BD002800409F
:1016500010000020104810B50E4901604FF482714F
:10166000416000218160C1604FF400720161C0E9F6
:1016700005121022C0E90721416281620A21C1627C
:10168000FFF70BFD002803D0BDE81040FEF7FFBEBA
:1016900010BD000000380040300000200C4810B59C
:1016A0000A4901604FF4E1314160002181600C2260
:1016B000C160C0E904128161C161FFF7B1FE002879
:1016C00003D0BDE81040FEF7E2BE10BD004400406C
:1016D00088000020FEE7704770B505462420FEF71D
:1016E000EBFD002443F698262878C043C0B2FEF7ED
:1016F00003FE641C6D1CB442F6D32620FEF7DCFD0D
:1017000000240020FEF7F8FD641CB442F9D370BD3C
:101710007047002102E00A38C0B2491C0A28FAD2F8
:10172000090740EA1160704770B504460068C16857
:10173000490614D44FF0FF31C160FEF797FF05460C
:101740004FF47A7607E000BFFEF790FF401BB042EF
:1017500001D9032070BD2068C0684006F4D5002080
:1017600070BD000038B504461248134B0068B0FB4A
:10177000F3F04FF47A73584300906068B0F5827FBD
:101780000DD10B46009200228021204600F016F871
:1017900070B1606D40F020006065032038BD009896
:1017A00030B1401E009020688068C0430006F6D526
:1017B000002038BD0C00002000366E012DE9F041FC
:1017C0001D4617460E460446DDF8188008E0681CE2
:1017D00006D0FEF74BFFA0EB0800A8420BD255B194
:1017E0002068806836EA000030D00020B842EED190
:1017F0000020BDE8F0812068416821F0E0014160EF
:101800006068B0F5827F0BD1A068B0F5004F02D0C0
:10181000B0F5806F04D12068016821F040010160BB
:10182000A06AB0F5005F09D12068016821F4005179
:1018300001602068016841F400510160012084F8D2
:101840005100002084F850000320D2E70120CDE7AA
:101850007047FEF711BF000010B598B03021684600
:10186000FEF7ECFC14210CA8FEF7E8FC142111A8EB
:10187000FEF7E4FC19480024016841F08051016042
:10188000006800F0805016901548016821F440412E
:1018900041F4004101600068102100F440401690BE
:1018A0000A2000900120CDE90301CDE90504684636
:1018B000FFF70EF90F20CDE90C040E940F940021D0
:1018C0000CA81094FFF71AF802201190000214904F
:1018D00011A8FEF76BFF18B010BD000040380240A1
:1018E000007000401048016841F4700101600F4829
:1018F000016841F0010101600C4A002108321160C9
:1019000002680B4B1A400260031D0A4A1A60026803
:1019100022F48022026005480C300160024958061A
:10192000803908607047000088ED00E00038024010
:10193000FFFFF6FE1030002410B5806B0021C1853A
:10194000C184FFF7E3FC10BD0168CA6822F49072FD
:10195000CA6001684A6922F001024A61202180F8C8
:101960003A10704710B590F83A10222901D00220A1
:1019700010BD8168B1F5805F11D00169002901684F
:101980001FD0496801F07F03816A4A1C82620B7094
:10199000C18D491E0904090CC18518D02BE00269CC
:1019A000816A002A0268526805D0D2B20A80816A30
:1019B000491C8162ECE7C2F308020A80816A891C33
:1019C000F7E74A68816A4B1C83620A70E0E70168A6
:1019D000CA6822F02002CA600168CA6822F48072D4
:1019E000CA6001684A6922F001024A61202180F838
:1019F0003A10FFF783FD002010BD00002DE9F041F3
:101A0000044600680169E26821F440511143016114
:101A10002169A068E26908436169114322680843AB
:101A2000D16849F20C6399430143D1602068416950
:101A3000A26921F4407111434161E2696425B2F564
:101A4000004F9748974922684FF032083FD08A42AA
:101A500001D082427CD1FEF7F9FF00EBC00101EB1F
:101A6000001061688900B0FBF1F6FEF7EFFF00EBB4
:101A7000C00101EB001061688900B0FBF1F0B0FB20
:101A8000F5F06FF01801484306EB800108EB0110F8
:101A9000B0FBF5F000F0F006FEF7D8FF00EBC00158
:101AA00001EB001061688900B0FBF1F0B0FBF5F0CC
:101AB00006EB0016FEF7CAFF00EBC00101EB0010B9
:101AC00061688900B0FBF1F7FEF7C0FFD2E08A42FF
:101AD00001D082423DD1FEF7B9FF00EBC00101EB1E
:101AE000001061684900B0FBF1F0B0FBF5F00601B1
:101AF000FEF7ACFF00EBC00101EB0010616849008C
:101B0000B0FBF1F7FEF7A2FF00EBC00101EB001004
:101B100061684900B0FBF1F0B0FBF5F06FF018011F
:101B2000484307EB800108EBC100B0FBF5F000F083
:101B3000F80006EB4006FEF789FF00EBC00101EB61
:101B4000001061684900B0FBF1F7FEF77FFF3CE051
:101B500055E0FEF76BFF00EBC00101EB0010616880
:101B60004900B0FBF1F0B0FBF5F00601FEF75EFFB7
:101B700000EBC00101EB001061684900B0FBF1F718
:101B8000FEF754FF00EBC00101EB00106168490053
:101B9000B0FBF1F0B0FBF5F06FF01801484307EB34
:101BA000800108EBC100B0FBF5F000F0F80006EB97
:101BB0004006FEF73BFF00EBC00101EB001061683F
:101BC0004900B0FBF1F7FEF731FF00EBC00101EB7C
:101BD000001061684900B0FBF1F0B0FBF5F06FF068
:101BE0001801484307EB800108EBC100B0FBF5F09A
:101BF00000F00700216830448860BDE8F081FEF7FE
:101C000015FF00EBC00101EB001061688900B0FB1B
:101C1000F1F6FEF70BFF00EBC00101EB001061686D
:101C20008900B0FBF1F0B0FBF5F06FF0180148430C
:101C300006EB800108EB0110B0FBF5F000F0F006B8
:101C4000FEF7F4FE00EBC00101EB001061688900B3
:101C5000B0FBF1F0B0FBF5F006EB0016FEF7E6FE88
:101C600000EBC00101EB001061688900B0FBF1F7E7
:101C7000FEF7DCFE00EBC00101EB0010616889009B
:101C8000B0FBF1F0B0FBF5F06FF01801484307EB43
:101C9000800108EB0110B0FBF5F000F00F00A9E7A0
:101CA000001401400010014090F83910212901D0A2
:101CB000022070478168B1F5805F016A0BD04A1C31
:101CC0000262026809785160C18C491E0904090C3E
:101CD000C1840ED017E009880268C1F30801516081
:101CE00001690029016A02D0491C0162ECE7891CE4
:101CF000FBE70168CA6822F08002CA600068C16818
:101D000041F04001C1600020704700000148FFF72A
:101D1000FFBA000088000020FEE70907090E00282E
:101D200004DB00F1E02080F80014704700F00F00A1
:101D300000F1E02080F8141D704702E008C8121F6F
:101D400008C1002AFAD170477047002001E001C1A4
:101D5000121F002AFBD17047FEF796FCFFF77CFDAF
:101D6000FFF7D0FBFFF736FCFFF774FCFFF796FC9C
:101D7000002208210848FEF773FCFEF7DDFA074948
:101D80000846FFF7A9FCFEF769FBFEF777FB50203A
:101D9000FEF790FBFEE7000000040240A01D0008D3
:101DA00000000414227800041000004306800E0591
:101DB0000422100089040040003009088084004893
:101DC00022A0000904080304000E00000000000027
:101DD000000000000E2CA2780102800002460408D8
:101DE0000706000280208003000805080840400E16
:101DF0000C0223501188480001E80806000000008A
:101E00000000000000001EBA12E000104488000428
:101E10000C000E50C0A000509400000202230802E3
:101E2000C004010409110104040000D822070000C5
:101E300000000000000000001C1D60E02526E001FD
:101E400000081820870000008101300A2002844227
:101E50000080000300000B040004000410E00007F1
:101E6000000000000000000000001E4029C0010B1F
:101E700087020E0098400F0200402400064C6010BC
:101E800020204000000100111080008942001074E1
:101E9000100780000000000000000000394012E040
:101EA000B382C1916001190006000050D48800017E
:101EB00040100002000002028040148880000010E0
:101EC00080780017800000000000000000003A2425
:101ED00011C004560810808818000620150800005C
:101EE00000200B0000001C201982300004C02200DA
:101EF000100000680C83800000000000000000005B
:101F00001ABE1F801000C6080500300007040068D4
:101F1000C040040100408000040008080805044295
:101F20000001210800380001C0000000000000008E
:101F300000003C184BC00092EC618A043504670035
:101F400000040000040100000C1000091A2A1244C9
:101F500001E8902C0201041EE431C00000000000E2
:101F6000000000003824A7010000480200003000F3
:101F7000FF02C020800004000041830001008000B7
:101F80000001016090000000000E0445C000000048
:101F90000000000000003A204F00030C61008001A7
:101FA00040000F1029010048000C243008500204A2
:101FB0000001000000702010C202045E8580E00075
:101FC0000000000000000000BC552E010098010137
:101FD000C20040004720A010000004802201001031
:101FE000020000230000503002100004205F430074
:101FF000E000000000000000000038107C00010537
:10200000828082886008078400004000802102905E
:1020100000000202000324008810000008013017AD
:1020200020006000000000000000000038B45E00E6
:10203000051100000002C0001FA000024120830221
:10204000001100284B01040302000090030000402F
:10205000904780807000000000000000000038D62B
:10206000DC00259C62012800C0400F880000002091
:102070008000101084000244AA41800000B80800CB
:1020800008060403CA807000000000000000000081
:102090001C459C0040000000050084048B80000C5F
:1020A000100100100060800403210025800D081835
:1020B000128000050401E0803000000000000000F4
:1020C00000001D2E380400FDC800040180061B809E
:1020D0000000080010800002A64002000043E0005B
:1020E000040C001400820101E0C078000000000030
:1020F000000000001E8AB8000D08541004010145BC
:102100000780610100020630005020080302000130
:102110008401004D042400000000D1603000000064
:102120000000000000000E8070000000A4011003F9
:102130009002C3C04000A008802042B03A000300D3
:102140000081C012005C02000184088098C0380041
:1021500000000000000000001E9E700009015210E7
:102160000001A0208DD0009070B55A0000082E40CC
:1021700003300803E0020026004090400400DC2009
:1021800038000000000000000000005BF00001CA01
:10219000538008CB042181C0040400504240080051
:1021A0000800035882C1E5000002010820205514F0
:1021B000CC38180000000000000000000F25F000DF
:1021C000013944182C83021509C0128800041040FC
:1021D0000000108003823901F80000078020000908
:1021E00040048E121C000000000000000000478622
:1021F000E800054518848A07001300C80001900113
:1022000080000048080015811001FC122003000026
:102210002811800047100C000000000000000000A2
:1022200023C6E0400010C2000806080610E8040AB1
:1022300000022002260C080109B0000398100001DA
:10224000804004200A004B580C00000000000000F1
:1022500000000389E00080E005004C16363C03C016
:102260001104000202808004020403808003BC0089
:10227000001300200A20400161CC0C000000000087
:102280000000000041DDE0001010A2081806480C14
:1022900005E02424000A400000451010498800038E
:1022A000DE20421180000831040061CE06000000EB
:1022B00000000000000001D3C000000B9031100EA0
:1022C000041801E0000300248A00000408000980CB
:1022D0000001CE040001840400014600E0C4AE0009
:1022E000000000000000000000F388102046178066
:1022F0001004601A03E00116020122000044820962
:1023000023E00011CF000402C200000002103026BA
:102310000600000000000000000000F78011022EFF
:1023200011805046417443401402001062408815E9
:10233000040883800401C6004800C4200000004057
:10234000183316000000000000000000007FC000ED
:1023500001380004808E00B4A7642002034100000D
:10236000000E0C1003C00001CB4020005000000400
:1023700000009A1A03800000000000000000007FA7
:10238000000400040202120C82600EE1040E002020
:1023900000001006108017C88001CB00400150508B
:1023A0000080A0101C0D83800000000000000000D1
:1023B000003F020000018502000C09411F7002026B
:1023C00020242000100A510447C000098180004ADF
:1023D000E900011021002C878300000000000000AC
:1023E0000000003C000008064100A08C00C01C70EA
:1023F0000311022020804047401003E200078B8138
:1024000000007900000405948D17938000000000FF
:1024100000000000003E0819000210800008198A20
:102420001C300601882881200003020003CA4001F5
:1024300081C400046000004028800E03D3800000A7
:10244000000000000000003C0850800100802209CC
:102450000180397000080C00110120050A0043C0FA
:10246000001383E030042C00000062800611C3C01A
:1024700000000000000000000072002304207882A9
:10248000201B8A003978011602484000001500011F
:1024900013C0000380E00001B8180020608007002E
:1024A000C3E0000000000000000000700000000811
:1024B000E410641A271030F00001420128201015A2
:1024C000110807C0108380E4003A9200200000A0A9
:1024D0000760E5A000000000000000000078001088
:1024E0003000C650281C048270B800000004A018F8
:1024F0000009880003C01013A0E4048018900003B2
:1025000010C4078031E0000000000000000000E07F
:1025100001000000219022DC4408E25C0000A40AD3
:10252000300000AD000127F4080391700802182064
:1025300000008A4C432030C0000000000000000072
:1025400001E020804000008020588C01E458000108
:10255000181010000405000007E0B223927200007A
:1025600012000340402203E25DF000000000000082
:10257000000001C0006040080180203C0801C1B893
:1025800002120A8010188F0700A007E04123CEF83E
:1025900000011C000200082081C028E000000000AB
:1025A0000000000003C0000000280200003050833B
:1025B000835C00CC81005300401D32000670010393
:1025C0001A3808008C002006807801EA86F00000A6
:1025D00000000000000023C000000400000A403C8E
:1025E0009007811C4860C3008800F10580030565E1
:1025F00020833918000018001A10202008F002F07B
:1026000000000000000000000F800B000400080024
:102610006070600F41DC058280C02800040EC00697
:102620008EE08003201C00121E604000002000F895
:1026300030F800000000000000000F8008000001DA
:102640000000A870704E401C0291C2C00080800C37
:1026500020080E712013009F00400C010380003001
:1026600010FC04F000000000000000000F0808202B
:10267000000000024430609607AE01005340042081
:10268000402600000E680907080C0A001C800200A2
:10269000409480FC0CF800000000000000003E00A8
:1026A000830220700004C030401A0A0C0001407000
:1026B0000500000D90200E700807020C20024C004F
:1026C00080408400207E00780000000000000000B0
:1026D000BE110400000040000034C13D60460040CF
:1026E000C0200400C00F00010E60002750DE004231
:1026F0004C4200000098047F0038000000000000F9
:1027000000007C002888001100000437C05E278686
:102710000080C0380B80000D04041C704187040F3A
:1027200000029E08000810180837887C000000008E
:10273000000000007841033024001008D879807A26
:1027400028460000670C0300000D80005D60040651
:102750005253091006110100181A183FA23C00003C
:10276000000000000000F000A212030800008078C2
:1027700090541A9F021048041B00100CA4091C60FE
:102780000C07905728002C00001820000039821EEA
:102790000000000000000000E0041484A4014021B7
:1027A000013193F680071528E04651821004A000FD
:1027B000DF3000060C679088064402000A082018E3
:1027C000E00F0000000000000001E00300640400CE
:1027D0000011003941E4084F1844E00A0000822C3F
:1027E00088001870948F80038C0086800000120887
:1027F0000414E1060000000000000003C20009010B
:1028000050000201006361C42283B002620304C16C
:10281000202C00581970402E041384080600122240
:102820000108001C75478000000000000007E00858
:10283000000800000A44113703C01182020043015E
:10284000018041AC80003A30000E00F1C0004E0023
:1028500000000028001C3803800000000000000F6A
:102860008000000001081001006203C2832581007E
:102870007204C281000EC40018720C0E20C5C8007C
:10288000060220002011080D9C03800000000000BB
:10289000000E0108D0000000400940F00756C0C2F9
:1028A00080086010C028000C84C19860081E1200C7
:1028B000C005032800200008C02C4E03C000000003
:1028C0000000001E010200098220402300E44708A6
:1028D0009C11C48070002030000884303431000E18
:1028E0009908E00003002004004A00068F21C00080
:1028F00000000000003C00C1020A802000AD00651D
:102900000E1A18A3910030003990000C1000327894
:1029100080182208E001130000288450600607A3F5
:10292000E000000000000078000200084080000184
:10293000007E4E3359D5F107640018180008A00036
:102940003430101C810070000A0204104008088412
:1029500005E070000000000000B0085857000200B9
:102960000301047F1C19400191013080088C000C88
:10297000900534A0280C980070000347000204085A
:10298000914312F030000000000001E0904080D040
:102990000032040200F4F8568812E04234100C04AD
:1029A0000019819160708A380042718403034800E5
:1029B0000009C14300F838000000000003E10011E5
:1029C000A0904084C503047C7D021024C132700AAB
:1029D000265D001B844061B0823821857844031154
:1029E0000A04060CC103903C1C0000000000079084
:1029F00001258119886001A380F2BC405002F009D2
:102A0000B0000602021CC09060F0517C80203800AB
:102A1000710080028048C003C23D0E00000000002B
:102A20000F80002F80100100020700F07604009054
:102A300061403101A302110880406C300439B0516B
:102A4000B848012360002048E401003D0700000071
:102A500000001E05021F8808D21201A182F067F053
:102A600001C471012024018208188200637400747B
:102A700001041C40030000002008E0018C1FA3009B
:102A8000000000003C00407FA4020404006181DAE1
:102A9000D21C00486058BD0200C108388080581020
:102AA000823800191E00138018200471E000B03F26
:102AB000C780000000007C9800FF08100806000195
:102AC00008E8E5C7800E31003800806482F8800095
:102AD000C4300C2044551E0009804000C08BE0002B
:102AE000C01FE1C000000000700027E700000001E7
:102AF0000080A8F9C385A000784230808030401D56
:102B00008000D031007000000C0001500008280146
:102B1000E000D11CF4E00000000060023FCF0002A2
:102B20002820001180E3E009FC00B2013800811880
:102B300040CB80C8C239117884800602018004002D
:102B40004001B001645C7D700000000040003F8FD8
:102B500004000002508180EB84283F001800389068
:102B6000001C204A8000C9B00060800424042102B7
:102B700042004001B1006B1E3C3800000000001014
:102B80007C0F01000484502924E3AA101B80180044
:102B90003D000944108882078C3000F808000700C7
:102BA000090004164C01B00C6C1C0FFC0000000066
:102BB000000EF80E00090000404080C2044086E28A
:102BC00018003D000015881E80818410405818258B
:102BD00017800304254000213410541C07BE000058
:102BE0000000103FE00E00120908400888E424208D
:102BF00013BC8C801C0010030C3E800B2530088514
:102C00007EEBF7025183080140091820744E01F64B
:102C10000000000003FF001E1A000800002099CFEA
:102C2000040010CE0E203C040001845C8021C231DF
:102C300001F2079403801380010004010890380E0C
:102C400000F3800000002FF8001E002230600021F9
:102C5000D6CC0900006F0F0038008000E32DE003A0
:102C600080F20FF24C50EBA0018C9004000510187C
:102C70001C2E007D800000007F40001E0018181AE6
:102C80000003C0DD0082701FC614942040802148DC
:102C9000602310903FFDC00611C0919000280011E4
:102CA00008001E16000FC00000001000001D0010DC
:102CB00000422201A1FC2604101FF6C03E4610016E
:102CC0001908C9434039C990000001804100000043
:102CD000000188500C4E0007E0000000000000BC1E
:102CE000000071000021C1F810200007F700BE00AD
:102CF00000000C184A4600B883C2000201E001A59A
:102D00000C44002584009E5E0001F80000000000D5
:102D1000003C08004000200180F702240005BF4667
:102D20001F0002B0068C50275FFC6304A00104C0A2
:102D30004181000050839000160600007C000000D6
:102D40000000007C088850002000D0E50301002727
:102D5000FFC09F0001000B8848864F70078200006B
:102D600022E001000000B001A700810E00001E005B
:102D700000000000003822498280190485E200002A
:102D8000010AFFA03FC0500089C8410E5FB2563013
:102D900020001C600102000402058303070E0000EE
:102DA00007C000000000007808180800142CC1C1FA
:102DB000E00005021FC09F2A0009006C404FF190FF
:102DC0000408800204E0811000000001F2100327D3
:102DD000000041E0000000000078100800802001A1
:102DE00081CD1808000337E03F800900007C004FC8
:102DF0000031060000002138011200800006414128
:102E00000117000000180000000000F8000C00206E
:102E10000285C8C4454000240FF81D998002205E39
:102E2000E47C0A525D028000807001429004000040
:102E3000430402A7000000060000000000F00009A3
:102E400000000025C0E20400080149EE1FE0040272
:102E5000200B21FC22191C4400000078095040106E
:102E6000040461880183000000000000000000737A
:102E7000A2C9605C0201C1C4C400021340D79DE432
:102E8000881300076F08D0180A0C400000381100A2
:102E90002000010220C001C300000000000000006B
:102EA00000F0802C600A0400E9C004010000033136
:102EB0005EC002091655AE094008181000402134C2
:102EC0009042004000800040E0C700000000000089
:102ED000000000F0026C00824080D5D4080000049D
:102EE00064709C602008800378580218102000004D
:102EF0000238402644328004314004C38000000080
:102F00000000000000E0100480206400C1C0000048
:102F100077FF8A389DE01A006061E093083870A25C
:102F200004002478324406094011304100C30000F7
:102F300000000000000001E4440C00000080C1C259
:102F400040FFFFFFF8189E70001448C0E4331218C9
:102F50007FFFC00000764000010C016411208063F7
:102F6000000000000000000001E0B1140018100093
:102F700061801FF30FABFF184C7000041244E0187F
:102F80002FDA68145F40003A420000100300182056
:102F900020E3800000000000000001C400CC804954
:102FA000450061C1DF822A5B7FBC0C380201012031
:102FB0000030809CC04F0064001D20020011009072
:102FC000B8300023800000000000000001D1002D77
:102FD00082811040F9C540046001FDCC0E3C02081E
:102FE000104304350418EF794080001B04800180F1
:102FF00001A28400007F000000000000000000D853
:10300000000400000058611480000215F1F6061853
:10301000101014640966021BBFFFFA25C00C1302CE
:1030200008004C40049001338000000000000000C4
:10303000018000AC00104C00E181A07F7F408AB885
:103040002D1800A0006A896901FBBF4EFF82440C65
:103050000004400000204228203B800000000000C7
:10306000000003C0001C00041200E1C047FFFFF68F
:103070000D1D0C4E0001006040600FF9D97AFFF081
:1030800000148000000000100328021F0000000050
:10309000000000000385461E0A006100708207FFE1
:1030A000FF5FE40F840E0102206809C83D6FDCDD7C
:1030B000DA9E41068402480020508184019A8000F3
:1030C0000000000000000780017C0040100931C0B2
:1030D0007EFBEB5172858E2F0901096010C07BBF0A
:1030E000BFD41F468B8E0204080400020044000E69
:1030F0008000000000000000078008BC2000800164
:103100002082FFFFF3FFFD018E1F0000006E08D13B
:10311000EF4FFFCE7F5FE10F20C000080A940066EA
:10312000008FC0000000000000000F08007C10327B
:1031300005007481F7FFDDFFFDC1E607803000C8A0
:103140004093DCFF6A1FEFEFFC2612020002000B27
:1031500050320903C0000000000000000F0042FCD4
:10316000030000633487FF7FEE1CDFE6D4078E0187
:103170000062419F7FFD7E9A1FFFFF860803044087
:103180000141813B4703E0000000000000000E0702
:1031900021E405040800318FFFFFD1BBFFF84F8900
:1031A000D480106009BFFFFB5A3D03FF77F79400FE
:1031B00004800000688F8001C00000000000000053
:1031C0000E0003DD2A001102F1FFDEFDFFDFFFCE5E
:1031D0002687C8000834016EEFE748E8D7FF1FDBF9
:1031E000A20008040200600DB00080000000000092
:1031F00000001E00079E0500601134FFFFFAD4F99D
:10320000BFDF3683E000206001C789F69E4FEFFEE6
:10321000F6FF0000000810017007C000E000000089
:10322000000000001E000F8DA140000038FFF07D5F
:10323000C093FEFE9E44F000216001FE092E05C5EC
:103240009777FFFF008194000000B8018080F000B4
:103250000000000000001C000F1E138140009FFFB3
:10326000E97C7FA7CFFE87805010002003F0179DD8
:1032700004221FFBFFFD9000040822203C61C0488F
:1032800070000000000000003D401E04010408041E
:103290003EFFA2F6E4287DDFFB00B800122411C037
:1032A0006BB300CECD7C7FFF9F4002044141BE0046
:1032B000612038000000000000003C003F8E0180CB
:1032C0000002BCFADA652C0CBEFDFF823D420964A7
:1032D000110D031E0285235EBDEE4809001A8040D1
:1032E000330030001E0000000000000078003D0E9A
:1032F00001A820017DE8146D416752FFA384BC0141
:103300000172025443DB0971A17F27FF04010020F1
:103310000006638018000E00000000000000780224
:10332000703E009040BFFE6A02FF80FD8EEFC9A98B
:103330002C000960460907C68983B73963F7141062
:103340002002848A20C1060B0F000000000000004C
:10335000F000B00E50D092943E688CEE00DB1EBFA1
:10336000B0C07F02006006220F8B8C8A841C20FF75
:1033700001081002014420E0210007800000000045
:103380000000F001C41600A80000366280F78067D4
:10339000B6C7FC7E2702803006030C50013438BCCF
:1033A00030FF60080008018B2271000093C000000C
:1033B00000000000E00BC20E88C00528367826F217
:1033C000806C6F2DBE000F8020302D0286912182EF
:1033D000D3FC807F290440000C10E93C880001C028
:1033E000000000000001E007C00610E10C0037609B
:1033F00043F380E310AE31E00F9820B858008EE11F
:1034000045446038007FA00204020400E84E5002E8
:1034100001F0000000000009C00E404C00E0191649
:103420003FF028EA21ECC3CE10A047F010F8188036
:103430001E2441428FEC0CDF10001080400440033A
:1034400082912878000000000001C00C014C02D8D5
:1034500000301F6001FA1F04007E00A00C60003CD9
:1034600030020E321192131D013FD8A008080080CF
:103470004001E506003801000000000381181846ED
:1034800000E000001AB007EDDD90E18E140002A10B
:10349000203820000E040820027C021F09802040F2
:1034A000020043003E04043C0000000000038030A2
:1034B000008E29F022441FF147FC67BDCA0E500060
:1034C00000F1803870001F81D2700A7F009B00C01D
:1034D00000020086400C1F80004F00000000000723
:1034E00080F00A0602E618A03FFB3DD800FD81BF30
:1034F000408441B08418E1001C81006A4B3C923D3D
:10350000410A04210820E10041EB0007C00000004F
:10351000000600E0494420E080A0AFB005CA855E07
:10352000C91720200038001E40001C800032497D51
:10353000003E408070804241E04000FC1425E000E5
:103540000000000E01800D4C04E80000BDFC49E9BC
:10355000857B0E0E8040805FC29AC0400F0600CC73
:1035600002FAD496F22008008A00CC4800BFB018B6
:10357000FC008000000C27D808248074000A28D0A2
:1035800048E450AF1D6F0000000EA1BD82000F186F
:10359000A3021034201F02600800C000004001FF99
:1035A000FB4A3FCF8000001D0DC0C83C6071200861
:1035B0002B9440F883FE003A0020843F001D8010C9
:1035C000089102053C7C403F1A90210000D482C043
:1035D00001C7FFF007FC000000180FC11C39407044
:1035E000028434784248106F00FE00500213031D1D
:1035F00080280E062008657C003F0102202200037F
:10360000B16048C07FFFFFC0010000383FC01C48C8
:103610009038008499F80079007B041E00000003B4
:10362000A01F08000604612000FC08BE4100200025
:103630008001846801C00049EC000000003C79C1B1
:10364000080C0070020008E8007C00BC880420110F
:103650000020C98E2080079000280058003F0000FD
:103660000010000B802009C0400000000000006036
:10367000F1C019088C3B08911CF8007602B825EEC1
:1036800010001C01C01E26500F1008368038023E64
:10369000302508000611306001C000000000000065
:1036A00000F1E1E01808013C01895C7C0070003EFB
:1036B00069EE04000002704E110007EB101B013888
:1036C000003F1008B0000041087001C00000000079
:1036D000000000C3C1D41E188E9882041C58003507
:1036E000C360007E00002000380E61000601081251
:1036F000103800BE000040082209202001C0000050
:103700000000000001DF01E01C188298B0081F7C57
:10371000003C012841BC010208801C0E004407E265
:1037200000100338007A480A22510203043001C015
:10373000000000000000018C00C89C580A4C80006A
:103740001C7C003CA582915C000224003EA621085E
:1037500005444691023800630028025404010030F9
:1037600000E000000000000007BC01E13DD800AE11
:1037700084014F28001E411502BC00840050432CD8
:1037800000200790260881F00076080014160283B6
:10379000081A01E0000000000000066001E01C18AB
:1037A0000006C4000EFA001C500C5EF800820010E7
:1037B0008306222007898A8360F000EB540C0020E6
:1037C0008142019000C00000000000001FC000E026
:1037D0005910314FF1841638000C8880201A0200ED
:1037E000000201F200040328200886E000C29000D5
:1037F00080202206005C00600000000000001F80A6
:1038000000F01C380297C000077C00080839181027
:10381000000101100562000001D23054F5C000E63D
:10382000008001002006000801C000000000000028
:103830007F0000F01C180097E0240F0C00012240CC
:103840000F1000201000003A4830018340046C80C3
:1038500000C39230004010060008C0C00000000005
:103860000000740000F0983911C7E081071E0000C5
:1038700038940D9000000211081F000048C0881401
:1038800027100187A0400040040C000821E0000040
:1038900000000000700000F01D338082E0008B8E7D
:1038A0000000F981C370001000000146402120662D
:1038B000141497000133006200C0180C000C85C07E
:1038C000000000000000000000F09CB80284E660E8
:1038D00089C60003DCB7C620000200002813005090
:1038E0004428880E5F000107050808C0000A010C83
:1038F00010C0000000000000400000701CB80085EF
:10390000F10203E20000EC16364004100040008390
:1039100080800C1E094B3E04048308008240044B47
:10392000000461E0000000000000000000351C7889
:1039300010D4720441F000007BECC0C20000001003
:103940000180010007C7CC833C00040710202AC077
:103950002018040C01E000000000000000000078C6
:103960001C7840E4720207FC00003C4177C0010073
:1039700001000000200000F6E0BF7000581F041096
:1039800041D80030342600E00000000000000000B4
:10399000003C187C00C7780140F900001FA06E8031
:1039A0000100000000780120002FFBFBDA07F80778
:1039B0000020018100B0200C01E0000000000000A8
:1039C000000000385C7860DC78080F7C3C000FEF6A
:1039D000FFC022000000000500000001FEE4003BE3
:1039E000E217000001800930050600E00000000039
:1039F00000000000003914F902D63C81037803F876
:103A000003FFFFC008000000080000000C007F6CEE
:103A1000001F800F01280210106801822060000042
:103A200000000000000000381C7800C33E00007C4D
:103A300003FFE0FBF846020690002200C0000120D0
:103A400083FEAF046807000003A400604BC720F0AA
:103A500000000000000000000014187C00C23F09B4
:103A6000007C03E4BDFF600000882000009000801F
:103A7000000C40D1070406731600030010E14097C4
:103A800002700000000000000000000D2CFC00434C
:103A9000BD08001C03FFFF90000004000000500060
:103AA000021000020001010000070000871C904680
:103AB000884390700000000000000000001E387C69
:103AC00020C23F880118886FF80042800000002063
:103AD00020000000000028002310200700006F08CD
:103AE00098C0014394700000000000000000000F27
:103AF0001CFE41425FC508BE010000000088404036
:103B00000802008000004000858C010800070800C2
:103B10001E00008A8520C27800000000000000001E
:103B20000006BCF600608F8C002E41008100000072
:103B300088000000C0082021000008800141C42F37
:103B400002001E0001801030B47800000000000068
:103B500000000007F8E401680FC310AE40004040C9
:103B6000000842040214200000000000004001028E
:103B7000020F00003F001100901A013C00000000FD
:103B8000000000000003BDE610684FE0205600442E
:103B900000002000004000200408A00000420000B7
:103BA0000001000F50113E880311000F7038000013
:103BB00000000000000000039DE400600FF0846E30
:103BC00000008000028000000200030008020810CC
:103BD00004006900210300107C0003018013189C7D
:103BE00000000000000000000001FDD6016A0FF493
:103BF0002407001500018A000400000400000000F2
:103C0000000400004000000F80A47C001F904007CB
:103C1000F83C0000000000000000000199C018A25C
:103C20000E79846310000310184200004004000065
:103C30000001001808000000004F4211FD0802704A
:103C40000003F01E00000000000000000000FDD690
:103C50000220063C00238200020002000000800EC9
:103C600040004004400000020900010BDA01FC00A2
:103C7000AC010289FC1C00000000000000000000F4
:103C8000EDC202F20FDF811281000408004400003F
:103C9000000C06200810920000000082000F0003B4
:103CA000DE021C882490785E000000000000000006
:103CB00000407FC72030473F011BC0100400108028
:103CC0000008101F0000100000000008000C011F79
:103CD000820318011C2800117C0E00000000000067
:103CE000000000003FFE00B017074008E1101880F8
:103CF00000000100001F42040220000000000048F4
:103D0000200E8227B820784418C53E0E000000001F
:103D10000000000000001F8603B04F1BC10EE00230
:103D2000000004310004001C001004040000040022
:103D30000200004FE2863800780000083D070000CE
:103D400000000000000000000F8700B00703E00E35
:103D50006000000801010020305C1000000000003D
:103D600002124008000F800E3090F0011258BC077C
:103D700080000000000000000000078F6030470056
:103D8000F0076120002001000000001C80001000EE
:103D9000400000001220041F801E78A9E8000000E7
:103DA0007F0380000000000000000000078F013149
:103DB0008308F0033100000980004002021940002E
:103DC0000000000000000040302FC1582041C0100A
:103DD0000C003FC780000000000000000000071F2B
:103DE00082104380F805A002282000000005003C56
:103DF00000000400000100780040000F943B6013B5
:103E0000842011003F9380000000000000000000AB
:103E1000071FC0100381FC09F00800000004000621
:103E2000003C020840000000200400A4000FC06A0B
:103E300060068020010077C1C00000000000000083
:103E4000000007BE803002807F02FE0028000602CC
:103E50000800007C30000000000001012400005F29
:103E6000C0EE300C0840131073C1C0000000000009
:103E700000000000061F803201213F80F800000092
:103E80008000200010BC01008000002000003120D4
:103E9000001FD0D8E03C41A40200E1F0E0000000A7
:103EA000000000000000063F807012C07FCF70004D
:103EB0000A088000000100380200000010008000A5
:103EC0000000008FC1C4807210000408E0F06000A0
:103ED00000000000000000000E39803F01F97FA0C3
:103EE000FC010086200118000038000018020000C4
:103EF00082101020001DE385C0E9900A442060F87C
:103F0000600000000000000000000E738038006CAC
:103F10003FF23CC4000000200000103800180000F0
:103F2000010000102000005CC318C0C4090906602D
:103F3000E03E780000000000000000000E73806288
:103F40000064BFFD9E004000000000200010000043
:103F500000100400001C0402001CE70890D0408000
:103F60000D40E01F380000000000000000001E634C
:103F7000801000370FDC1BA0090008540800000067
:103F800000000040028400001004001BE685990038
:103F9000B9003B01C00F1C00000000000000000041
:103FA0001C61C030011007FF570000201400000002
:103FB0002100A55000000000010108000018ED21BB
:103FC000814812829000C007DC0000000000000061
:103FD00000003CC3E11080198FFF870A202A4200AD
:103FE0008000028000000000000200000004A01910
:103FF000DA012280A00134118001EE2000000000CF
:10400000000000002DC1D510010801FFC902008089
:104010004800220000800000000100440400120259
:10402000001FF0030080700070038000EE000000AD
:104030000000000000003981E21A54CEC6F0C3A08F
:104040000804903000200004000080000000000000
:1040500000080D1FF8130010F240702700003F8089
:1040600000000000000000003F81C00004060EF8C0
:1040700079C040020002000001000022001400008C
:10408000000002050018F00620403004E2030000A2
:1040900007E000000000000000007701E03809336D
:1040A000C3F82FC480000040000000102000080862
:1040B000000082800200003FF88608141850E407D0
:1040C000000003E000000000000000006700C014D2
:1040D0000004C27C01E0C00A0009400200000100A7
:1040E000000810801000400020BBE22C0A2018219C
:1040F000E10E400000F80000000000000004EE01A6
:10410000E0180220E43C447C10410000050000005F
:1041100000220000000000180030023DD2084D23AC
:104120001821C01E00000038000000000000000040
:10413000FC00E0504018F81C500D802024000000C6
:10414000000000000000000000504000013B216C16
:1041500002315C23C91C00000000000000000000C8
:104160000000F800E014003C0C1E000304800C0169
:1041700010480200204001008048000402400473FF
:1041800080D810205D21C038000000000000000031
:1041900000000001F000E23028308F0F1000800096
:1041A00000000300000204040008000040010408AD
:1041B000017FC03820349E4380380000000000009A
:1041C000000000000001E000F212013003AF901087
:1041D000C024210000008000400000001000000802
:1041E000810055FE202040619E47D07000000000F5
:1041F0000000000000000001C10070002A3C907720
:1042000000108000040A15000400000000000011E6
:104210000400188089FE2164416A1C179070000018
:1042200000000000000000000003C000F012022C9B
:10423000143B8000000000000001040000000000AA
:1042400000400020002009EE084040340C4790E078
:104250000000000000000000000000078000E031C6
:1042600008C42201400100200000000004080000F2
:10427000108014200000000003FC8140C1783C0F36
:1042800003C000000000000000000000000E00005D
:104290007051C3640010C000010001000440100808
:1042A00002000000000401000410A7F819C088F003
:1042B0001C8D83800000000000000000000000044E
:1042C0000000710000566101D080200080000000D5
:1042D00000808000000000000018000025C98990BF
:1042E000A0F19E9D070000000000000000000000FB
:1042F000001C0000610540C61000F0100001002005
:1043000004000808040004220001100100004FCC42
:104310008B0109F41F3D9E0000000000000000001A
:10432000000000100000704C0183032070000800A2
:104330000004040002002000014000000000000012
:104340003F98230081F24D329C00000000000000E5
:104350000000000000200000702000972000780876
:10436000000100004000D310404000180C0000087D
:1043700000127FD80E00E1F90C7238000000000036
:10438000000000000000000000007A20010F000281
:1043900038002000000000001001000020800020F4
:1043A00000200000BFD88680C3B94C70E000000038
:1043B0000000000000000000000000007890020FE4
:1043C00002103E00000010201004400000200000F9
:1043D00080100000210B7B9CDC2013BE4C61E800A8
:1043E0000000000000000000000000000000383065
:1043F000161F00281E0000008000001004000000AE
:104400002045800004000201F998FC08039C1CE789
:10441000800000000000000000000000000000001C
:104420007800060F80041C000080000801000008CE
:1044300040080081800000009003F39AB840033CDC
:104440000DCE000000000000000000000000000091
:1044500000003A800E2F8C410E0080014000204069
:10446000008120080003040020020107E8983100C1
:104470000F1E0FFC00000000000000000000000004
:104480000000000030100C0780820780000000044C
:10449000000000100000007F00009000601FC19825
:1044A00022C30E1E0FF000000000000000000000FC
:1044B00000000000000030901C27C0861705500047
:1044C000000000020600000011FF00000020001F95
:1044D000C09970800E1E0BE000000000000000007C
:1044E000000000000000000060049806C400A30063
:1044F0000000040000030000400003DC0000000492
:10450000009F183EC4910E0E1FC000000000000066
:1045100000000000000000000000798038C7C526B8
:1045200087820030000200078000801004E1000054
:10453000040000FE60D8C1541E0D1F800000000062
:104540000000000000000000000000003001704387
:10455000E0004BC0010000000003E0A00040D38059
:104560004001080001FF059B82001C073F800000FE
:10457000000000000000000000000000000060805B
:10458000700FC02105C0040001004403FAC00427D5
:104590007F820000048289E820DB8201DC0F270093
:1045A000000000000000000000000000000000000B
:1045B0003A8170134C8012E00100000000001FF8E7
:1045C000000BB000000000601770093B0400381FAA
:1045D000AE0000000000000000000000000000002D
:1045E00000003080E08B6B28017800820000000022
:1045F00013FFA33D00000000000007F000B6498251
:10460000780F86000000000000000000000000009D
:10461000000000007911E203F001807C0030200AE4
:1046200000004049EEA00002020100002FC100740A
:104630009900300F8F000000000000000000000013
:104640000000000000003005C4032413983C004122
:1046500000000000202080000000020080001F8079
:10466000A57F1100701F8400000000000000000002
:1046700000000000000000007801E042F040851FCB
:1046800000000004080000000000000002200000FC
:104690007F0400FA2000E01CEC0000000000000095
:1046A0000000000000000000000070C74003F08020
:1046B000140E000002002000000000402000001046
:1046C0000100FEC032F1E010F03CE4000000000008
:1046D0000000000000000000000000007207C0059C
:1046E000D41100A3C000000048080002040000022A
:1046F00001008003F81300730D80E03C66000000A9
:1047000000000000000000000000000000006087C2
:10471000C01198208187E000000000010000000A1D
:1047200000000210000FF64001678001C0387C00D5
:104730000000000000000000000000000000000079
:10474000E04FE453DD904C10B800801041000000B1
:10475000000000000000001F870020C32009C038AF
:104760003C0000000000000000000000000000000D
:104770000000605CC443DE4026EC3C2000000000EA
:104780000001000000100201045FA049008603013F
:10479000C0703C00000000000000000000000000AD
:1047A00000000000603CF411CE0801483C0000000D
:1047B0000000002010004080000A007E04800146B6
:1047C0008043C0E01E000000000000000000000068
:1047D0000000000000006978E145CE0300938F10CF
:1047E00080000000000000000000410881FD9648A4
:1047F000004C784380E00E00000000000000000044
:104800000000000000000000E0787209EE80004126
:104810001BE200010040011050000000020093FA6A
:104820002C2A025E400381C0060000000000000048
:1048300000000000000000000000E0F07820C70049
:10484000101701F0042000000000001002200000FA
:104850000FE048310018400701800200000000000E
:10486000000000000000000000000000D1E0700D1A
:10487000C3A80404007C04040020020000202000DF
:1048800000003780380808310807030001000000E5
:104890000000000000000000000000000000E9C06F
:1048A0007001E3804101097E604008811000000032
:1048B00000004000BF107A4407F9240706000400F6
:1048C00000000000000000000000000000000001E7
:1048D00083803802E3C028408B47C00000000020DE
:1048E000800000200801F618385010F8100E000063
:1048F00000000000000000000000000000000000B8
:104900000001C3203C8A61C02421D007F0000000D0
:104910002004004002000003EC10780A43D1059EF9
:104920000000000000000000000000000000000087
:1049300000000001CF001802F1FA05711001EC002F
:104940000000004000000000020FF20DF8540FF8C4
:10495000109E0000000000000000000000000000A9
:10496000000000000001AC001C4070F2806000A05C
:104970007F00C000002410000000001FE300FC8A3C
:104980008FE028DC000000000000000000000000B4
:10499000000000000000000118001E0868700830C8
:1049A0000DD81F800800080000000020007FEB20C9
:1049B000DC001FE0001C0000000000000000000000
:1049C0000000000000000000000330000F013C70F8
:1049D0001230E48007F00200000002200420007F73
:1049E000E1009C851FF5B0180000000000000000E9
:1049F0000000000000000000000000076000074009
:104A00007C387330C44108780008000002000100BF
:104A100001FFC4209D003FF2A03C00000000000008
:104A20000000000000000000000000000007C0209F
:104A300027C0FC1C00385010023C0004000040005D
:104A400041000FFFD00B5C05F9E8003800000000C2
:104A5000000000000000000000000000000000074F
:104A6000800001803C1C039F6020085F0000000064
:104A7000000100003F7FC043380079F80230000099
:104A80000000000000000000000000000000000026
:104A9000000E000001C19C0ED07FC030010B7800D9
:104AA0000000200000207FFFC0033E20F0FD90703A
:104AB00000000000000000000000000000000000F6
:104AC00000000018000001E03C070039F005641008
:104AD000F822000000000001FFF3C5071B01E07C85
:104AE000C0F0000000000000000000000000000016
:104AF000000000000020000000F83807047FF829BB
:104B000020C03FC0000800000016FF81C1CFBF2BAE
:104B1000C01C41E000000000000000000000000098
:104B20000000000000000000000000783C03A03FEF
:104B3000F91058023FF080000000001FFFCFC40AA8
:104B40003E13C03C01E00000000000000000000037
:104B5000000000000000000000000000007C1C03BA
:104B6000C85FFC0110001FFA01000020007FFD0556
:104B7000EC8E3E03003E23E0000000000000000039
:104B80000000000000000000000000000000003EE7
:104B90001C01E607FF0202139BFF8012000441FF85
:104BA000FC3B4A883C07003603C0000000000000C0
:104BB00000000000000000000000000000000000F5
:104BC000000F1C01E9A3FF82240A1FFFE000084038
:104BD00027FFF1EBE1387C0E001E27C0000000002B
:104BE00000000000000000000000000000000000C5
:104BF0000000000F8C00F0AFFF854880BFEFF80089
:104C000000102FFFDE77C838381E001F47E0000075
:104C10000000000000000000000000000000000094
:104C20000000000000078A007513FFC20A141FFF6E
:104C3000FF008007FFFFF20BE0387818000F07E055
:104C40000000000000000000000000000000000064
:104C50000000000000000003E60038D3FFC0803EE3
:104C60009FFFFFF0800BFFFFC2D7FFF8383000072F
:104C7000CFC00000000000000000000000000000A5
:104C800000000000000000000001F60038E8DF70BE
:104C900003141FFFFFF001FFFEBA0807FFF8797049
:104CA00000071FC00000000000000000000000001E
:104CB00000000000000000000000000077001C0D54
:104CC000DF980114CFFFFFFC03FFFFC27193E4F8EC
:104CD00038C800038700000000000000000000004A
:104CE00000000000000000000000000000007F0045
:104CF0001C43DFDC80000FFFFFFFF7FFFFDB5301EA
:104D0000C00039C000038F00000000000000000058
:104D10000000000000000000000000000000000093
:104D20001F800E36EFCCB1008FFFFFF7DBFFFFE8EF
:104D3000A5038A0071800001CE0000000000000081
:104D40000000000000000000000000000000000063
:104D500000002FC005F0EFCE00300EBFFFFFFFFFB9
:104D6000FDC19409C00022000001CC000000000039
:104D70000000000000000000000000000000000033
:104D80000000000017C007F8E7E316000FF7FFFF69
:104D9000FFFFFE3171D380003E000000CC00000018
:104DA0000000000000000000000000000000000003
:104DB00000000000000000400FF8F3E384340FAD62
:104DC000AFFFFFFFFD0BB041D0081C000080FC00CE
:104DD00000000000000000000000000000000000D3
:104DE000000000000000001000002FFC77D1C04040
:104DF0004E5CFFFFFFFFC0CD3311F21C30000000FE
:104E0000FC000000000000000000000000000000A6
:104E100000000000000000000000010003067DF912
:104E2000F0401E8F77FFFFFFD0B30C0FC4A1F0003E
:104E30000008380000000000000000000000000032
:104E40000000000000000000000000000000000260
:104E500038F0FF55FED535FF5EFF0B40C083C00123
:104E6000F00000003800000000000000000000001A
:104E70000000000000000000000000000000000032
:104E8000000378F83FFFFFDC8557FFFA0556508F87
:104E9000DE81F000000018000000000000000000AB
:104EA0000000000000000000000000000000000002
:104EB00000000001B8380FB51FD9889FFDFAD40251
:104EC00003A9F10238000000020000000000000009
:104ED00000000000000000000000000000000000D2
:104EE000000000000000F81E0E401F91CA0BF7D80A
:104EF0007C2A0861E803CC000000000000000000EC
:104F000000000000000000000000000000000000A1
:104F10000000000000000000780F1E009C81144B70
:104F20003BC1E8A12503FE432E0000000000000065
:104F30000000000000000000000000000000000071
:104F40000000000000000000000078000C107F0C42
:104F50004A8AF324220A8099FC24170000000000EA
:104F60000000000000000000000000000000000041
:104F700000000000000000000000000038001800E1
:104F8000FE71165DC5912196898BF8041180000091
:104F90000000000000000000000000000000000011
:104FA00000000000000000000000000000001800E9
:104FB0003803BE00182A025094E22991F00C00E058
:104FC00000000000000000000000000000000000E1
:104FD00000000000000000000000000000000000D1
:104FE00018003833BE074E0DBC1021001081F0B8F8
:104FF000037000000000000000000000000000003E
:1050000000000000000000000000000000000000A0
:1050100000000C0071AF3E048BDC04A06399328267
:10502000F0B282100000000000000000000000004C
:105030000000000000000000000000000000000070
:1050400000000000040072FDBE01D26C20520580F9
:105050003A90F2B007FE00000000000000000000DF
:105060000000000000000000000000000000000040
:105070000000000000000400F0F63E0147ED486526
:1050800041841508F2E007B7180000000000000096
:105090000000000000000000000000000000000010
:1050A00000000000000000000600F471FE21CCE1C9
:1050B000B1BA40980440ECE8471B8C0400000000A3
:1050C00000000000000000000000000000000000E0
:1050D000000000000000000000000201E2F3EC000C
:1050E0005C78C2A011002369F3C006EFE300000062
:1050F00000000000000000000000000000000000B0
:105100000000000000000000000000000301E0F9C2
:10511000BE483360A18A86E04810F7D206A5E48035
:10512000000000000000000000000000000000007F
:1051300000000000000000000000000000000081EE
:10514000C0FA0A0030D8A4B215104048F3D00623A4
:1051500078E00000000000000000000000000000F7
:10516000000000000000000000000000000000003F
:105170000001F8B9EC000C8E30A008010004EBA08F
:105180009F9BF438000000000000000000000000B9
:10519000000000000000000000000000000000000F
:1051A00000000003DA1CED020501654C8CE0B084C0
:1051B0006F08071BBC0E000000000000000000008C
:1051C00000000000000000000000000000000000DF
:1051D000000000000007BD1EEA800263456C885194
:1051E00000026E082F77EF8B000000000000000027
:1051F00000000000000000000000000000000000AF
:105200000000000000000007DD2FE84000104619F4
:10521000430701143E1075FFDF81C000000000004D
:10522000000000000000000000000000000000007E
:105230000000000000000000000EBE0FF88010D13A
:105240007B08766C0A40780007F6E3CE3000000059
:10525000000000000000000000000000000000004E
:105260000000000000000000000000DF3C07F840E4
:105270002820C0A0A68031087800057FD7F238002A
:10528000000000000000000000000000000000001E
:1052900000000000000000000000000000CEFE033F
:1052A000F000000153C086B20098E00002E7DBFC8A
:1052B00003000000000000000000000000000000EB
:1052C0000000000000000000000000000000439FFC
:1052D000EE03F0000000204A04100241E08426D6CC
:1052E0007E7B048000000000000000000000000041
:1052F00000000000000000000000000000000000AE
:10530000465C0602F7102003CCA8DD848003C000B1
:1053100003FFD6F7896000000000000000000000D5
:10532000000000000000000000000000000000007D
:1053300000000C97EE00F400802103C86C80048705
:10534000800002FB1CAFF0300000000000000000F5
:10535000000000000000000000000000000000004D
:105360000000000011FF760678815000B893000419
:10537000082E008002FECEFFFC07000000000000A7
:10538000000000000000000000000000000000001D
:1053900000000000000003FF8B0439C0800119A841
:1053A000E102121E000006D5B5DFFE4180000000BC
:1053B00000000000000000000000000000000000ED
:1053C00000000000000000000FFCFD003C004182D6
:1053D000866F5202013C0040039FDDFEFFE8600043
:1053E00000000000000000000000000000000000BD
:1053F00000000000000000000000FFF5DE001C00BF
:10540000004400E000018078220802C7EEFDBDFAEA
:105410001800000000000000000000000000000074
:10542000000000000000000000000000FFF7AE00D8
:105430000F8110001002008022E1090141FEF3FB00
:10544000C5FE020000000000000000000000000097
:105450000000000000000000000000000007FFFF47
:10546000CE40371002004000C40005E01023823B0C
:10547000BEDDFF3FA00000000000000000000000B3
:105480000000000000000000000000000000007F9D
:10549000FADE9E00039800000200051001C0000023
:1054A00004D9578FB53FFD500000000000000000F8
:1054B00000000000000000000000000000000200EA
:1054C00000FFDFF17E0243800A6280008A100780BD
:1054D0000400069B017EFCA8FFE000000000000025
:1054E00000000000000000000000000000000000BC
:1054F00000000BDEBDDFF21990EA880100620000B7
:105500000F200000459DCFFDC4C45FF800000000DF
:10551000000000000000000000000000000000008B
:10552000000000003DFDEEFE4C090060000002009E
:1055300010001E31620086657BFFC21D1FFC00004B
:10554000000000000000000000000000000000005B
:10555000000000000001FFE37C35460131E040A877
:10556000004020043858080005FD3FBF8860DBDF9D
:10557000C400000000000000000000000000000067
:10558000000000000000003FDEE575BB4F080C384E
:105590000A00088202C0780000000CDFE7BB261971
:1055A000626FE0000000000000000000000000004A
:1055B0000000000000000002D7FFEC6E4779C340F6
:1055C000501E800080800041E10440000AFFDB7C27
:1055D000D006A18BFC0000000000000000000000CD
:1055E00000000000000000000017FFFFFE8F06BD56
:1055F0001F00828E200080000007C040000008E7E6
:10560000EFF7D7967D115F4000000000000000001A
:105610000000000000000000000000FFFFFEBFFFD0
:1056200036DFBF042023020034000753450000008A
:105630001FEF5EEC21EE77678FFE00000000000098
:1056400000000000000000000000000003EDFEFF6D
:1056500087B669EF99000081D00044A00057001080
:1056600080001F1EF5FBFB303FFC57FF00000000D1
:1056700000000000000000000000000000000FD04B
:105680007FA51FBE836BCF0C2001E18D1040000C65
:105690000000000016E5F3FB9AFF0688BFFFE0005C
:1056A000000000000000000000000000000001FFFA
:1056B000FF907AD99893D67FEF90000060C00028C1
:1056C000501C0006400039E6FFBFC08442F277C399
:1056D000F0000000000000000000000000000000DA
:1056E00007FFFF017A12DDE89B91EB0020007802B2
:1056F00008000039104000003C67FFFFFFD9EE733F
:10570000FF807800000000000000000000000000A2
:1057100000000FFFF1027C667058A35DFDA08402BB
:1057200018300800E7E40802000060CDFE2548714B
:10573000B2C2CF4678000000000000000000000068
:10574000000000000E0102003DE1BFB5DF8CDC81EE
:1057500004402C020011FFF0204000007E3FF54E77
:10576000C767CBA57F006C000000000000000000B0
:105770000000000000001C4044087EA1F3E521FC6D
:10578000E7D0005006004003FF00040000407ADB31
:10579000F675AB7DF10C3E08F7C00000000000007C
:1057A0000000000000000000380023102F9EE738A2
:1057B000382D77C0000003A205078D80000000008F
:1057C0006F7F3DFE90F8D6C27CF07FFC00000000A9
:1057D0000000000000000000000078002D90BFDCF9
:1057E0005301F1F7F7C000080382194F078A8000C0
:1057F0000000E67FBFFF314FE11AF9E1FFFF000033
:10580000000000000000000000000000785BFF8046
:105810001FB4FF84CDBDEB0000008080400E13C29A
:1058200000002000CE7F3DD2126EAB1BF3C7FDFF00
:10583000FE4000000000000000000000000000002A
:105840000102030406070809000000000102030426
:105850007058000800000020100000003A1D0008E9
:105860008058000810000020B80400004A1D0008FD
:105870000100000010000000000000000024F400FF
:040000050800019559
:00000001FF
